{
  "contractName": "CompanyFactory",
  "abi": [
    {
      "constant": true,
      "inputs": [],
      "name": "MAX_COMPANY_TOKENS",
      "outputs": [
        {
          "name": "",
          "type": "uint8"
        }
      ],
      "payable": false,
      "stateMutability": "view",
      "type": "function",
      "signature": "0x38abeb43"
    },
    {
      "constant": true,
      "inputs": [],
      "name": "MAX_OWNER_COMPANIES",
      "outputs": [
        {
          "name": "",
          "type": "uint8"
        }
      ],
      "payable": false,
      "stateMutability": "view",
      "type": "function",
      "signature": "0x4642e0ba"
    },
    {
      "constant": true,
      "inputs": [],
      "name": "EMPTY_ADDRESS",
      "outputs": [
        {
          "name": "",
          "type": "address"
        }
      ],
      "payable": false,
      "stateMutability": "view",
      "type": "function",
      "signature": "0xeb39c3af"
    },
    {
      "constant": false,
      "inputs": [
        {
          "name": "self",
          "type": "CompanyFactory.Data storage"
        },
        {
          "name": "aCompanyName",
          "type": "string"
        },
        {
          "name": "aPhone",
          "type": "string"
        },
        {
          "name": "aUrl",
          "type": "string"
        },
        {
          "name": "aDid",
          "type": "string"
        },
        {
          "name": "uPortAdd",
          "type": "address"
        }
      ],
      "name": "createCompany",
      "outputs": [
        {
          "name": "",
          "type": "Company"
        }
      ],
      "payable": false,
      "stateMutability": "nonpayable",
      "type": "function",
      "signature": "0x446b3243"
    },
    {
      "constant": true,
      "inputs": [
        {
          "name": "self",
          "type": "CompanyFactory.Data storage"
        }
      ],
      "name": "nextCompanyAvailablePositionUtil",
      "outputs": [
        {
          "name": "",
          "type": "uint8"
        }
      ],
      "payable": false,
      "stateMutability": "view",
      "type": "function",
      "signature": "0xebbe09fd"
    }
  ],
  "bytecode": "0x610f3c610030600b82828239805160001a6073146000811461002057610022565bfe5b5030600052607381538281f3fe73000000000000000000000000000000000000000030146080604052600436106100835763ffffffff7c010000000000000000000000000000000000000000000000000000000060003504166338abeb438114610088578063446b3243146100a65780634642e0ba1461025f578063eb39c3af14610267578063ebbe09fd1461026f575b600080fd5b61009061028c565b6040805160ff9092168252519081900360200190f35b8180156100b257600080fd5b50610236600480360360c08110156100c957600080fd5b813591908101906040810160208201356401000000008111156100eb57600080fd5b8201836020820111156100fd57600080fd5b8035906020019184600183028401116401000000008311171561011f57600080fd5b91939092909160208101903564010000000081111561013d57600080fd5b82018360208201111561014f57600080fd5b8035906020019184600183028401116401000000008311171561017157600080fd5b91939092909160208101903564010000000081111561018f57600080fd5b8201836020820111156101a157600080fd5b803590602001918460018302840111640100000000831117156101c357600080fd5b9193909290916020810190356401000000008111156101e157600080fd5b8201836020820111156101f357600080fd5b8035906020019184600183028401116401000000008311171561021557600080fd5b91935091503573ffffffffffffffffffffffffffffffffffffffff16610291565b6040805173ffffffffffffffffffffffffffffffffffffffff9092168252519081900360200190f35b6100906104a9565b6102366104ae565b6100906004803603602081101561028557600080fd5b50356104b3565b600581565b60008061029d8c6104c6565b905060ff811660031161033757604080517f08c379a000000000000000000000000000000000000000000000000000000000815260206004820152603f60248201527f596f752063616e2774206372656174652061206e657720636f6d70616e792e2060448201527f4d6178206c696d6974207265616368656420283320636f6d70616e6965732900606482015290519081900360840190fd5b6000338c8c8c8c8c8c8c8c8c61034b610581565b73ffffffffffffffffffffffffffffffffffffffff808c168252821660a082015260c0602082018181529082018a905260408201606083016080840160e085018e8e80828437600083820152601f01601f191690910186810385528c815260200190508c8c80828437600083820152601f01601f191690910186810384528a815260200190508a8a80828437600083820152601f01601f191690910186810383528881526020019050888880828437600081840152601f19601f8201169050808301925050509e505050505050505050505050505050604051809103906000f08015801561043d573d6000803e3d6000fd5b5033600090815260208f905260409020909150819060ff84166003811061046057fe5b01805473ffffffffffffffffffffffffffffffffffffffff191673ffffffffffffffffffffffffffffffffffffffff929092169190911790559c9b505050505050505050505050565b600381565b600081565b60006104be826104c6565b90505b919050565b60006104d0610591565b3360009081526020849052604090819020815160608101928390529160039082845b815473ffffffffffffffffffffffffffffffffffffffff1681526001909101906020018083116104f25750939450600093505050505b600360ff821610156105775760008260ff83166003811061054557fe5b602002015173ffffffffffffffffffffffffffffffffffffffff16141561056f5791506104c19050565b600101610528565b5060039392505050565b604051610960806105b183390190565b606060405190810160405280600390602082028038833950919291505056fe608060405234801561001057600080fd5b50604051610960380380610960833981018060405260c081101561003357600080fd5b81516020830180519193928301929164010000000081111561005457600080fd5b8201602081018481111561006757600080fd5b815164010000000081118282018710171561008157600080fd5b5050929190602001805164010000000081111561009d57600080fd5b820160208101848111156100b057600080fd5b81516401000000008111828201871017156100ca57600080fd5b505092919060200180516401000000008111156100e657600080fd5b820160208101848111156100f957600080fd5b815164010000000081118282018710171561011357600080fd5b5050929190602001805164010000000081111561012f57600080fd5b8201602081018481111561014257600080fd5b815164010000000081118282018710171561015c57600080fd5b50506020918201516000805433600160a060020a03199182161716600160a060020a038b161790558751919450925061019b916002919088019061021f565b5083516101af90600390602087019061021f565b5082516101c390600490602086019061021f565b5081516101d790600590602085019061021f565b5060068054600160a060020a031916600160a060020a03928316179055600080549091168152600160208190526040909120805460ff19169091179055506102ba9350505050565b828054600181600116156101000203166002900490600052602060002090601f016020900481019282601f1061026057805160ff191683800117855561028d565b8280016001018555821561028d579182015b8281111561028d578251825591602001919060010190610272565b5061029992915061029d565b5090565b6102b791905b8082111561029957600081556001016102a3565b90565b610697806102c96000396000f3fe60806040526004361061008d5763ffffffff7c010000000000000000000000000000000000000000000000000000000060003504166306fdde038114610092578063286805081461011c57806340cb346214610133578063429b62e5146101665780634abf825d146101ad5780635600f04f146102025780638da5cb5b146102175780639284f4971461022c575b600080fd5b34801561009e57600080fd5b506100a7610241565b6040805160208082528351818301528351919283929083019185019080838360005b838110156100e15781810151838201526020016100c9565b50505050905090810190601f16801561010e5780820380516001836020036101000a031916815260200191505b509250505060405180910390f35b34801561012857600080fd5b506101316102cc565b005b34801561013f57600080fd5b506101316004803603602081101561015657600080fd5b5035600160a060020a0316610489565b34801561017257600080fd5b506101996004803603602081101561018957600080fd5b5035600160a060020a031661055a565b604080519115158252519081900360200190f35b3480156101b957600080fd5b506101e6600480360360408110156101d057600080fd5b50600160a060020a03813516906020013561056f565b60408051600160a060020a039092168252519081900360200190f35b34801561020e57600080fd5b506100a76105a6565b34801561022357600080fd5b506101e6610601565b34801561023857600080fd5b506100a7610610565b6002805460408051602060018416156101000260001901909316849004601f810184900484028201840190925281815292918301828280156102c45780601f10610299576101008083540402835291602001916102c4565b820191906000526020600020905b8154815290600101906020018083116102a757829003601f168201915b505050505081565b6000543390600160a060020a0316811461036d57604080517f08c379a000000000000000000000000000000000000000000000000000000000815260206004820152602260248201527f4163636573732064656e6965642e20436f6d70616e79206f776e6572206f6e6c60448201527f792e000000000000000000000000000000000000000000000000000000000000606482015290519081900360840190fd5b33ff5b81548152906001019060200180831161037057829003601f1682019150508481038352865460026000196101006001841615020190911604808252602090910190879080156104005780601f106103d557610100808354040283529160200191610400565b820191906000526020600020905b8154815290600101906020018083116103e357829003601f168201915b50508481038252855460026000196101006001841615020190911604808252602090910190869080156104745780601f1061044957610100808354040283529160200191610474565b820191906000526020600020905b81548152906001019060200180831161045757829003601f168201915b5050965050505050505060405180910390a250565b6000543390600160a060020a0316811461052a57604080517f08c379a000000000000000000000000000000000000000000000000000000000815260206004820152602260248201527f4163636573732064656e6965642e20436f6d70616e79206f776e6572206f6e6c60448201527f792e000000000000000000000000000000000000000000000000000000000000606482015290519081900360840190fd5b506000805473ffffffffffffffffffffffffffffffffffffffff1916600160a060020a0392909216919091179055565b60016020526000908152604090205460ff1681565b60076020528160005260406000208181548110151561058a57fe5b600091825260209091200154600160a060020a03169150829050565b6004805460408051602060026001851615610100026000190190941693909304601f810184900484028201840190925281815292918301828280156102c45780601f10610299576101008083540402835291602001916102c4565b600054600160a060020a031681565b6003805460408051602060026001851615610100026000190190941693909304601f810184900484028201840190925281815292918301828280156102c45780601f10610299576101008083540402835291602001916102c456fea165627a7a723058201b643141d640ef6b69f1ed30f7003c92372a29a87b4611d0ebbf90ea18d73b860029a165627a7a723058204bc5f77162d7bb991a6874dfcd829d757bf0457a3905209edd1b6fa88fc40a250029",
  "source": "pragma solidity ^0.5.0;\n\nimport \"./Company.sol\";\n\n/** @author Juan Castellon\n    @title Library to create companies on the platform\n    @dev CompanyFactory is a factory pattern implemented via a Library, that \n        will be used to create new companies. It will basically conglomerate all\n        the logic related to companies creation and it's business rules. \n        At the moment creates instances for every request without any \n        validation, but the plan is to add all business rules here to create \n        companies. \n */\nlibrary CompanyFactory {\n    /** Constants */\n    uint8 public constant MAX_OWNER_COMPANIES = 3; // 1 owner could register up to 3 companies.\n    uint8 public constant MAX_COMPANY_TOKENS = 5; // 1 company could register up to 5 tokens.\n    address public constant EMPTY_ADDRESS = address(0);\n\n    /** Data structures */\n    /** @dev This Data structure is used to define the persistence structure I \n            will use in the Platform contract.\n            I decided to use arrays to be able to iterate through them. This may\n            change for a mapping in the future.\n     */\n    struct Data {\n        mapping(address => address[MAX_OWNER_COMPANIES]) companies; // (owner => companies[3])\n        mapping(address => address[MAX_COMPANY_TOKENS]) tokens; // (company => token[5]))\n    }\n\n    /** Functions */\n    /** @dev First we find the first position available in the companies array, \n            if there is at least one available position for this owner address \n            (max 3 per owner), we create the company, add it to the companies \n            array and return it. As this is a library we will inherit the \n            context of the contract that is calling it (Platform), this is due \n            to the nature of low level calls to libraries (delegatecall).\n        @param self This function will receive the object (where the data is \n                stored) they are called on as their first parameter.\n        @param aCompanyName string with the name to use for this company.\n        @param aPhone string with the phone number for this company.\n        @param aUrl string with the URL for this company.\n        @param aDid string with company's uPort DID (not used yet).\n        @param uPortAdd uPort Ethr address (not used yet).\n        @return a new company instance.\n     */\n    function createCompany(\n        Data storage self,\n        string calldata aCompanyName,\n        string calldata aPhone,\n        string calldata aUrl,\n        string calldata aDid,\n        address uPortAdd\n    ) \n        external \n        returns (Company) \n    {\n        uint8 position = nextCompanyAvailablePosition(self);\n        require(\n            MAX_OWNER_COMPANIES > position,\n            \"You can't create a new company. Max limit reached (3 companies)\"\n        );\n        Company newCompany = new Company(\n            msg.sender,\n            aCompanyName,\n            aPhone,\n            aUrl,\n            aDid,\n            uPortAdd\n        );\n        self.companies[msg.sender][position] = address(newCompany);\n        return newCompany;\n    }\n\n    /** @dev Utility function to expose the functionality of \n            nextCompanyAvailablePosition() for testing purposes.\n        @param self This function will receive the object (where the data is \n                stored) they are called on as their first parameter.\n        @return next available position in the companies array.\n     */\n    function nextCompanyAvailablePositionUtil(Data storage self)\n        external\n        view\n        returns (uint8)\n    {\n        return nextCompanyAvailablePosition(self);\n    }\n\n    /** @dev Looks for the next available position in the companies array and \n            returns that position.\n        @param self This function will receive the object (where the data is \n                stored) they are called on as their first parameter.\n        @return next available position in the companies array or MAX_OWNER_COMPANIES\n                if no position available.\n     */\n    function nextCompanyAvailablePosition(Data storage self)\n        internal\n        view\n        returns (uint8)\n    {\n        address[MAX_OWNER_COMPANIES] memory ownerCompanies = self.companies[msg.sender];\n        for (uint8 i = 0; i < MAX_OWNER_COMPANIES; i++) {\n            if (ownerCompanies[i] == EMPTY_ADDRESS) {\n                return i; // first position available.\n            }\n        }\n        return MAX_OWNER_COMPANIES; // No empty spot available.\n    }\n\n}\n",
  "sourcePath": "/home/juan/consensys/final/final-project-Juan-cc/kmp/contracts/CompanyFactory.sol",
  "compiler": {
    "name": "solc",
    "version": "0.5.0+commit.1d4f565a.Emscripten.clang"
  },
  "schemaVersion": "3.0.0",
  "updatedAt": "2019-01-26T16:40:47.161Z",
  "devdoc": {
    "author": "Juan Castellon",
    "details": "CompanyFactory is a factory pattern implemented via a Library, that  will be used to create new companies. It will basically conglomerate all the logic related to companies creation and it's business rules.  At the moment creates instances for every request without any  validation, but the plan is to add all business rules here to create  companies. ",
    "methods": {
      "createCompany(CompanyFactory.Data storage,string,string,string,string,address)": {
        "details": "First we find the first position available in the companies array,  if there is at least one available position for this owner address  (max 3 per owner), we create the company, add it to the companies  array and return it. As this is a library we will inherit the  context of the contract that is calling it (Platform), this is due  to the nature of low level calls to libraries (delegatecall).",
        "params": {
          "aCompanyName": "string with the name to use for this company.",
          "aDid": "string with company's uPort DID (not used yet).",
          "aPhone": "string with the phone number for this company.",
          "aUrl": "string with the URL for this company.",
          "self": "This function will receive the object (where the data is  stored) they are called on as their first parameter.",
          "uPortAdd": "uPort Ethr address (not used yet)."
        },
        "return": "a new company instance."
      },
      "nextCompanyAvailablePositionUtil(CompanyFactory.Data storage)": {
        "details": "Utility function to expose the functionality of  nextCompanyAvailablePosition() for testing purposes.",
        "params": {
          "self": "This function will receive the object (where the data is  stored) they are called on as their first parameter."
        },
        "return": "next available position in the companies array."
      }
    },
    "title": "Library to create companies on the platform"
  },
  "userdoc": {
    "methods": {}
  }
}