{
  "contractName": "CompanyUtil",
  "abi": [
    {
      "constant": true,
      "inputs": [],
      "name": "MAX_COMPANY_TOKENS",
      "outputs": [
        {
          "name": "",
          "type": "uint8"
        }
      ],
      "payable": false,
      "stateMutability": "view",
      "type": "function",
      "signature": "0x38abeb43"
    },
    {
      "constant": true,
      "inputs": [],
      "name": "MAX_OWNER_COMPANIES",
      "outputs": [
        {
          "name": "",
          "type": "uint8"
        }
      ],
      "payable": false,
      "stateMutability": "view",
      "type": "function",
      "signature": "0x4642e0ba"
    },
    {
      "constant": true,
      "inputs": [],
      "name": "EMPTY_ADDRESS",
      "outputs": [
        {
          "name": "",
          "type": "address"
        }
      ],
      "payable": false,
      "stateMutability": "view",
      "type": "function",
      "signature": "0xeb39c3af"
    },
    {
      "constant": true,
      "inputs": [
        {
          "name": "self",
          "type": "CompanyFactory.Data storage"
        },
        {
          "name": "aCompany",
          "type": "address"
        }
      ],
      "name": "findCompanyOwner",
      "outputs": [
        {
          "name": "",
          "type": "address"
        }
      ],
      "payable": false,
      "stateMutability": "view",
      "type": "function",
      "signature": "0xf5612fc3"
    }
  ],
  "bytecode": "0x6102dc610030600b82828239805160001a6073146000811461002057610022565bfe5b5030600052607381538281f3fe73000000000000000000000000000000000000000030146080604052600436106100785763ffffffff7c010000000000000000000000000000000000000000000000000000000060003504166338abeb43811461007d5780634642e0ba1461009b578063eb39c3af146100a3578063f5612fc3146100d4575b600080fd5b61008561010d565b6040805160ff9092168252519081900360200190f35b610085610112565b6100ab610117565b6040805173ffffffffffffffffffffffffffffffffffffffff9092168252519081900360200190f35b6100ab600480360360408110156100ea57600080fd5b508035906020013573ffffffffffffffffffffffffffffffffffffffff1661011c565b600581565b600381565b600081565b6000610126610291565b3360009081526020859052604090819020815160608101928390529160039082845b815473ffffffffffffffffffffffffffffffffffffffff1681526001909101906020018083116101485750939450600093505050505b600360ff821610156102845773ffffffffffffffffffffffffffffffffffffffff84168260ff8316600381106101b057fe5b602002015173ffffffffffffffffffffffffffffffffffffffff16141561027c578160ff8216600381106101e057fe5b602002015173ffffffffffffffffffffffffffffffffffffffff16638da5cb5b6040518163ffffffff167c010000000000000000000000000000000000000000000000000000000002815260040160206040518083038186803b15801561024657600080fd5b505afa15801561025a573d6000803e3d6000fd5b505050506040513d602081101561027057600080fd5b5051925061028b915050565b60010161017e565b5060009150505b92915050565b606060405190810160405280600390602082028038833950919291505056fea165627a7a7230582066e5a492c048450c5ee1a3e148d5018cdf3510a0788584f6d0206211295ce2900029",
  "source": "pragma solidity ^0.5.0;\n\nimport \"./Company.sol\";\nimport \"./CompanyFactory.sol\";\n\n/** @author Juan Castellon\n    @title Library to create companies on the platform\n    @dev CompanyFactory is a factory pattern implemented via a Library, that \n        will be used to create new companies. It will basically conglomerate all\n        the logic related to companies creation and it's business rules. \n        At the moment creates instances for every request without any \n        validation, but the plan is to add all business rules here to create \n        companies. \n */\nlibrary CompanyUtil {\n    /** Constants */\n    uint8 public constant MAX_OWNER_COMPANIES = 3; // 1 owner could register up to 3 companies.\n    uint8 public constant MAX_COMPANY_TOKENS = 5; // 1 company could register up to 5 tokens.\n    address public constant EMPTY_ADDRESS = address(0);\n\n\n\n    /** @dev Look for the company on the companies array for this specific owner. \n        If the company is found for this msg.sender then we return the owner,\n        in case the company is not found in the companies array, 0x is returned.\n        @param self This function will receive the object (where the data is \n                stored) they are called on as their first parameter.\n        @param aCompany company address to search for owner.\n        @return the owner's address or 0x if not found.\n     */\n    function findCompanyOwner(CompanyFactory.Data storage self, address aCompany) public view returns (address) {\n        address[MAX_OWNER_COMPANIES] memory ownerCompanies = self.companies[msg.sender];\n        for (uint8 i = 0; i < MAX_OWNER_COMPANIES; i++) {\n            if (ownerCompanies[i] == aCompany) {\n                return Company(ownerCompanies[i]).owner();\n            }\n        }\n        return EMPTY_ADDRESS;\n    }\n\n}\n",
  "sourcePath": "/home/juan/consensys/final/final-project-Juan-cc/kmp/contracts/CompanyUtil.sol",
  "compiler": {
    "name": "solc",
    "version": "0.5.0+commit.1d4f565a.Emscripten.clang"
  },
  "schemaVersion": "3.0.0",
  "updatedAt": "2019-01-27T18:02:59.753Z",
  "devdoc": {
    "author": "Juan Castellon",
    "details": "CompanyFactory is a factory pattern implemented via a Library, that  will be used to create new companies. It will basically conglomerate all the logic related to companies creation and it's business rules.  At the moment creates instances for every request without any  validation, but the plan is to add all business rules here to create  companies. ",
    "methods": {
      "findCompanyOwner(CompanyFactory.Data storage,address)": {
        "details": "Look for the company on the companies array for this specific owner.  If the company is found for this msg.sender then we return the owner, in case the company is not found in the companies array, 0x is returned.",
        "params": {
          "aCompany": "company address to search for owner.",
          "self": "This function will receive the object (where the data is  stored) they are called on as their first parameter."
        },
        "return": "the owner's address or 0x if not found."
      }
    },
    "title": "Library to create companies on the platform"
  },
  "userdoc": {
    "methods": {}
  }
}