{
  "contractName": "Company",
  "abi": [
    {
      "constant": true,
      "inputs": [],
      "name": "name",
      "outputs": [
        {
          "name": "",
          "type": "string"
        }
      ],
      "payable": false,
      "stateMutability": "view",
      "type": "function"
    },
    {
      "constant": false,
      "inputs": [
        {
          "name": "anOwner",
          "type": "address"
        }
      ],
      "name": "modifyOwner",
      "outputs": [],
      "payable": false,
      "stateMutability": "nonpayable",
      "type": "function"
    },
    {
      "constant": true,
      "inputs": [
        {
          "name": "",
          "type": "address"
        }
      ],
      "name": "admins",
      "outputs": [
        {
          "name": "",
          "type": "bool"
        }
      ],
      "payable": false,
      "stateMutability": "view",
      "type": "function"
    },
    {
      "constant": true,
      "inputs": [
        {
          "name": "",
          "type": "address"
        },
        {
          "name": "",
          "type": "uint256"
        }
      ],
      "name": "tokens",
      "outputs": [
        {
          "name": "",
          "type": "address"
        }
      ],
      "payable": false,
      "stateMutability": "view",
      "type": "function"
    },
    {
      "constant": true,
      "inputs": [],
      "name": "url",
      "outputs": [
        {
          "name": "",
          "type": "string"
        }
      ],
      "payable": false,
      "stateMutability": "view",
      "type": "function"
    },
    {
      "constant": true,
      "inputs": [],
      "name": "owner",
      "outputs": [
        {
          "name": "",
          "type": "address"
        }
      ],
      "payable": false,
      "stateMutability": "view",
      "type": "function"
    },
    {
      "constant": true,
      "inputs": [],
      "name": "phone",
      "outputs": [
        {
          "name": "",
          "type": "string"
        }
      ],
      "payable": false,
      "stateMutability": "view",
      "type": "function"
    },
    {
      "inputs": [
        {
          "name": "anOwner",
          "type": "address"
        },
        {
          "name": "companyName",
          "type": "string"
        },
        {
          "name": "phoneNum",
          "type": "string"
        },
        {
          "name": "companyUrl",
          "type": "string"
        },
        {
          "name": "companyDid",
          "type": "string"
        },
        {
          "name": "uPortAdd",
          "type": "address"
        }
      ],
      "payable": false,
      "stateMutability": "nonpayable",
      "type": "constructor"
    },
    {
      "anonymous": false,
      "inputs": [
        {
          "indexed": true,
          "name": "companyAddress",
          "type": "address"
        },
        {
          "indexed": false,
          "name": "companyName",
          "type": "string"
        },
        {
          "indexed": false,
          "name": "phone",
          "type": "string"
        },
        {
          "indexed": false,
          "name": "url",
          "type": "string"
        }
      ],
      "name": "CompanyTerminated",
      "type": "event"
    },
    {
      "constant": false,
      "inputs": [],
      "name": "terminateCompany",
      "outputs": [],
      "payable": false,
      "stateMutability": "nonpayable",
      "type": "function"
    }
  ],
  "bytecode": "0x608060405234801561001057600080fd5b50604051610960380380610960833981018060405260c081101561003357600080fd5b81516020830180519193928301929164010000000081111561005457600080fd5b8201602081018481111561006757600080fd5b815164010000000081118282018710171561008157600080fd5b5050929190602001805164010000000081111561009d57600080fd5b820160208101848111156100b057600080fd5b81516401000000008111828201871017156100ca57600080fd5b505092919060200180516401000000008111156100e657600080fd5b820160208101848111156100f957600080fd5b815164010000000081118282018710171561011357600080fd5b5050929190602001805164010000000081111561012f57600080fd5b8201602081018481111561014257600080fd5b815164010000000081118282018710171561015c57600080fd5b50506020918201516000805433600160a060020a03199182161716600160a060020a038b161790558751919450925061019b916002919088019061021f565b5083516101af90600390602087019061021f565b5082516101c390600490602086019061021f565b5081516101d790600590602085019061021f565b5060068054600160a060020a031916600160a060020a03928316179055600080549091168152600160208190526040909120805460ff19169091179055506102ba9350505050565b828054600181600116156101000203166002900490600052602060002090601f016020900481019282601f1061026057805160ff191683800117855561028d565b8280016001018555821561028d579182015b8281111561028d578251825591602001919060010190610272565b5061029992915061029d565b5090565b6102b791905b8082111561029957600081556001016102a3565b90565b610697806102c96000396000f3fe60806040526004361061008d5763ffffffff7c010000000000000000000000000000000000000000000000000000000060003504166306fdde038114610092578063286805081461011c57806340cb346214610133578063429b62e5146101665780634abf825d146101ad5780635600f04f146102025780638da5cb5b146102175780639284f4971461022c575b600080fd5b34801561009e57600080fd5b506100a7610241565b6040805160208082528351818301528351919283929083019185019080838360005b838110156100e15781810151838201526020016100c9565b50505050905090810190601f16801561010e5780820380516001836020036101000a031916815260200191505b509250505060405180910390f35b34801561012857600080fd5b506101316102cc565b005b34801561013f57600080fd5b506101316004803603602081101561015657600080fd5b5035600160a060020a0316610489565b34801561017257600080fd5b506101996004803603602081101561018957600080fd5b5035600160a060020a031661055a565b604080519115158252519081900360200190f35b3480156101b957600080fd5b506101e6600480360360408110156101d057600080fd5b50600160a060020a03813516906020013561056f565b60408051600160a060020a039092168252519081900360200190f35b34801561020e57600080fd5b506100a76105a6565b34801561022357600080fd5b506101e6610601565b34801561023857600080fd5b506100a7610610565b6002805460408051602060018416156101000260001901909316849004601f810184900484028201840190925281815292918301828280156102c45780601f10610299576101008083540402835291602001916102c4565b820191906000526020600020905b8154815290600101906020018083116102a757829003601f168201915b505050505081565b6000543390600160a060020a0316811461036d57604080517f08c379a000000000000000000000000000000000000000000000000000000000815260206004820152602260248201527f4163636573732064656e6965642e20436f6d70616e79206f776e6572206f6e6c60448201527f792e000000000000000000000000000000000000000000000000000000000000606482015290519081900360840190fd5b33ff5b81548152906001019060200180831161037057829003601f1682019150508481038352865460026000196101006001841615020190911604808252602090910190879080156104005780601f106103d557610100808354040283529160200191610400565b820191906000526020600020905b8154815290600101906020018083116103e357829003601f168201915b50508481038252855460026000196101006001841615020190911604808252602090910190869080156104745780601f1061044957610100808354040283529160200191610474565b820191906000526020600020905b81548152906001019060200180831161045757829003601f168201915b5050965050505050505060405180910390a250565b6000543390600160a060020a0316811461052a57604080517f08c379a000000000000000000000000000000000000000000000000000000000815260206004820152602260248201527f4163636573732064656e6965642e20436f6d70616e79206f776e6572206f6e6c60448201527f792e000000000000000000000000000000000000000000000000000000000000606482015290519081900360840190fd5b506000805473ffffffffffffffffffffffffffffffffffffffff1916600160a060020a0392909216919091179055565b60016020526000908152604090205460ff1681565b60076020528160005260406000208181548110151561058a57fe5b600091825260209091200154600160a060020a03169150829050565b6004805460408051602060026001851615610100026000190190941693909304601f810184900484028201840190925281815292918301828280156102c45780601f10610299576101008083540402835291602001916102c4565b600054600160a060020a031681565b6003805460408051602060026001851615610100026000190190941693909304601f810184900484028201840190925281815292918301828280156102c45780601f10610299576101008083540402835291602001916102c456fea165627a7a723058201b643141d640ef6b69f1ed30f7003c92372a29a87b4611d0ebbf90ea18d73b860029",
  "source": "\npragma solidity ^0.5.0;\n\nimport \"./Owned.sol\";\n\n/** @author Juan Castellon\n    @title Entity contract for a company. \n    @dev Every time the user creates a new company a new instance of \n        this Company contract is going to be created. It will store\n        all data related with the company.\n*/\ncontract Company is Owned {\n\n    /** State variables */\n    mapping(address => bool) public admins;\n    string public name;\n    string public phone;\n    string public url;\n    string private did;\n    address private uPortAddress;\n    mapping(address => address[]) public tokens;\n\n    /** Events */\n    /**\n        @dev CompanyTerminated event is emitted every time a company is deleted.\n        @param companyAddress address of the company we are about to delete.\n        @param companyName string with the name of the company.\n        @param phone string with phone number of the company.\n        @param url string with url of the company.\n     */\n    event CompanyTerminated(\n        address indexed companyAddress,\n        string companyName,\n        string phone,\n        string url\n    );\n\n    /** @dev Default constructor where the owner and all attributes\n            of a company are set.\n        @param anOwner the address of this company's owner.\n        @param companyName string with the name of the company.\n        @param companyUrl string with company's url.\n        @param companyDid string with company's DID (not used at the moment)\n        @param uPortAdd address with uPort Ethr address (not used for now)\n     */\n    constructor(\n        address anOwner,\n        string memory companyName,\n        string memory phoneNum,\n        string memory companyUrl,\n        string memory companyDid,\n        address uPortAdd\n    ) public {\n        owner = anOwner;\n        name = companyName;\n        phone = phoneNum;\n        url = companyUrl;\n        did = companyDid;\n        uPortAddress = uPortAdd;\n        admins[owner] = true;\n    }\n\n    /** @dev this method will be executed to terminate a company. At the moment\n            It's not fully implemented yet.        \n     */\n    function terminateCompany() external ownerOnly(msg.sender) {\n        // TODO: before selfdestruction delegate token ownership to \n        // newCompanyContract.\n        selfdestruct(msg.sender);\n        emit CompanyTerminated(address(this), name, phone, url);\n    }\n}\n",
  "sourcePath": "/home/juan/consensys/final/final-project-Juan-cc/kmp/contracts/Company.sol",
  "compiler": {
    "name": "solc",
    "version": "0.5.0+commit.1d4f565a.Emscripten.clang"
  },
  "schemaVersion": "3.0.0",
  "updatedAt": "2019-01-26T16:07:07.527Z",
  "devdoc": {
    "author": "Juan Castellon",
    "details": "Every time the user creates a new company a new instance of  this Company contract is going to be created. It will store all data related with the company.",
    "methods": {
      "constructor": {
        "details": "Default constructor where the owner and all attributes of a company are set.",
        "params": {
          "anOwner": "the address of this company's owner.",
          "companyDid": "string with company's DID (not used at the moment)",
          "companyName": "string with the name of the company.",
          "companyUrl": "string with company's url.",
          "uPortAdd": "address with uPort Ethr address (not used for now)"
        }
      },
      "modifyOwner(address)": {
        "details": "This function will allow the owner of the contract to transfer  ownership to a new owner.",
        "params": {
          "anOwner": "new owner's address."
        }
      },
      "terminateCompany()": {
        "details": "this method will be executed to terminate a company. At the moment It's not fully implemented yet.        "
      }
    },
    "title": "Entity contract for a company. "
  },
  "userdoc": {
    "methods": {}
  }
}