{
  "contractName": "Owned",
  "abi": [
    {
      "constant": true,
      "inputs": [],
      "name": "owner",
      "outputs": [
        {
          "name": "",
          "type": "address"
        }
      ],
      "payable": false,
      "stateMutability": "view",
      "type": "function",
      "signature": "0x8da5cb5b"
    },
    {
      "inputs": [],
      "payable": false,
      "stateMutability": "nonpayable",
      "type": "constructor",
      "signature": "constructor"
    },
    {
      "constant": false,
      "inputs": [
        {
          "name": "anOwner",
          "type": "address"
        }
      ],
      "name": "modifyOwner",
      "outputs": [],
      "payable": false,
      "stateMutability": "nonpayable",
      "type": "function",
      "signature": "0x40cb3462"
    }
  ],
  "bytecode": "0x608060405234801561001057600080fd5b5060008054600160a060020a03191633179055610203806100326000396000f3fe60806040526004361061004b5763ffffffff7c010000000000000000000000000000000000000000000000000000000060003504166340cb346281146100505780638da5cb5b14610092575b600080fd5b34801561005c57600080fd5b506100906004803603602081101561007357600080fd5b503573ffffffffffffffffffffffffffffffffffffffff166100d0565b005b34801561009e57600080fd5b506100a76101bb565b6040805173ffffffffffffffffffffffffffffffffffffffff9092168252519081900360200190f35b600054339073ffffffffffffffffffffffffffffffffffffffff16811461017e57604080517f08c379a000000000000000000000000000000000000000000000000000000000815260206004820152602260248201527f4163636573732064656e6965642e20436f6d70616e79206f776e6572206f6e6c60448201527f792e000000000000000000000000000000000000000000000000000000000000606482015290519081900360840190fd5b506000805473ffffffffffffffffffffffffffffffffffffffff191673ffffffffffffffffffffffffffffffffffffffff92909216919091179055565b60005473ffffffffffffffffffffffffffffffffffffffff168156fea165627a7a72305820f48e9bf85af4e8e986a21546c575639c888c4b1fd1cc04501d7051b5bcb723e90029",
  "source": "pragma solidity ^0.5.0;\n\n/** @author Juan Castellon\n    @title Owned contract will provide functionality to validate ownership.\n    @dev This contract will be used to set the owner of a contract and to \n        validate that only the owner can execute certain action on the Platform.\n        This was created before I realize there was an audited Ownable contract \n        from OpenZeppelin so I may use their implementation in the future. \n */\ncontract Owned {\n    /** State variables */\n    address public owner;\n\n    /** Modifiers */\n    /** @dev This modifier validates that only the owner of the contract can\n            proceed executing this action on the calling contract. \n        @param anOwner address to validate against the state variable owner. If\n            is the owner then can proceed, if it is not the owner then throws\n            an error. \n     */\n    modifier ownerOnly(address anOwner) {\n        require(owner == anOwner, \"Access denied. Company owner only.\");\n        _;\n    }\n\n    /** Constructors */\n    /** @dev Default constructor that will be used to set the owner of the\n            contract.\n     */\n    constructor() public {\n        owner = msg.sender;\n    }\n\n    /** Functions */\n    /** @dev This function will allow the owner of the contract to transfer \n            ownership to a new owner.\n        @param anOwner new owner's address.\n    */\n    function modifyOwner(address anOwner) public ownerOnly(msg.sender) {\n        owner = anOwner;\n    }\n\n}\n",
  "sourcePath": "/home/juan/consensys/final/final-project-Juan-cc/kmp/contracts/Owned.sol",
  "compiler": {
    "name": "solc",
    "version": "0.5.0+commit.1d4f565a.Emscripten.clang"
  },
  "schemaVersion": "3.0.0",
  "updatedAt": "2019-01-27T18:02:59.752Z",
  "devdoc": {
    "author": "Juan Castellon",
    "details": "This contract will be used to set the owner of a contract and to  validate that only the owner can execute certain action on the Platform. This was created before I realize there was an audited Ownable contract  from OpenZeppelin so I may use their implementation in the future. ",
    "methods": {
      "constructor": {
        "details": "Default constructor that will be used to set the owner of the contract."
      },
      "modifyOwner(address)": {
        "details": "This function will allow the owner of the contract to transfer  ownership to a new owner.",
        "params": {
          "anOwner": "new owner's address."
        }
      }
    },
    "title": "Owned contract will provide functionality to validate ownership."
  },
  "userdoc": {
    "methods": {}
  }
}