{
  "contractName": "Owned",
  "abi": [
    {
      "constant": true,
      "inputs": [],
      "name": "owner",
      "outputs": [
        {
          "name": "",
          "type": "address"
        }
      ],
      "payable": false,
      "stateMutability": "view",
      "type": "function",
      "signature": "0x8da5cb5b"
    },
    {
      "inputs": [],
      "payable": false,
      "stateMutability": "nonpayable",
      "type": "constructor",
      "signature": "constructor"
    },
    {
      "constant": false,
      "inputs": [
        {
          "name": "_owner",
          "type": "address"
        }
      ],
      "name": "modifyOwner",
      "outputs": [],
      "payable": false,
      "stateMutability": "nonpayable",
      "type": "function",
      "signature": "0x40cb3462"
    }
  ],
  "bytecode": "0x608060405234801561001057600080fd5b5060008054600160a060020a03191633179055610203806100326000396000f3fe60806040526004361061004b5763ffffffff7c010000000000000000000000000000000000000000000000000000000060003504166340cb346281146100505780638da5cb5b14610092575b600080fd5b34801561005c57600080fd5b506100906004803603602081101561007357600080fd5b503573ffffffffffffffffffffffffffffffffffffffff166100d0565b005b34801561009e57600080fd5b506100a76101bb565b6040805173ffffffffffffffffffffffffffffffffffffffff9092168252519081900360200190f35b600054339073ffffffffffffffffffffffffffffffffffffffff16811461017e57604080517f08c379a000000000000000000000000000000000000000000000000000000000815260206004820152602260248201527f4163636573732064656e6965642e20436f6d70616e79206f776e6572206f6e6c60448201527f792e000000000000000000000000000000000000000000000000000000000000606482015290519081900360840190fd5b506000805473ffffffffffffffffffffffffffffffffffffffff191673ffffffffffffffffffffffffffffffffffffffff92909216919091179055565b60005473ffffffffffffffffffffffffffffffffffffffff168156fea165627a7a7230582047cfc74ab80f03fda0526723fde1a5b557503b74805eeb7facc558dd3584b7c60029",
  "source": "pragma solidity ^0.5.0;\n\ncontract Owned {\n    /* TODO: Can be changed for Ownable from zepellin*/\n    address public owner;\n\n    constructor() public {\n        owner = msg.sender;\n    }\n\n    modifier ownerOnly(address _owner) {\n        require(owner == _owner, \"Access denied. Company owner only.\");\n        _;\n    }\n\n    function modifyOwner(address _owner) public ownerOnly(msg.sender) {\n        owner = _owner;\n    }\n}\n",
  "sourcePath": "/home/juan/consensys/final/final-project-Juan-cc/kmp/contracts/Owned.sol",
  "compiler": {
    "name": "solc",
    "version": "0.5.0+commit.1d4f565a.Emscripten.clang"
  },
  "schemaVersion": "3.0.0",
  "updatedAt": "2019-01-26T01:16:51.524Z",
  "devdoc": {
    "methods": {}
  },
  "userdoc": {
    "methods": {}
  }
}