{
  "contractName": "Platform",
  "abi": [
    {
      "constant": true,
      "inputs": [],
      "name": "MAX_COMPANY_TOKENS",
      "outputs": [
        {
          "name": "",
          "type": "uint8"
        }
      ],
      "payable": false,
      "stateMutability": "view",
      "type": "function",
      "signature": "0x38abeb43"
    },
    {
      "constant": false,
      "inputs": [
        {
          "name": "anOwner",
          "type": "address"
        }
      ],
      "name": "modifyOwner",
      "outputs": [],
      "payable": false,
      "stateMutability": "nonpayable",
      "type": "function",
      "signature": "0x40cb3462"
    },
    {
      "constant": true,
      "inputs": [],
      "name": "MAX_OWNER_COMPANIES",
      "outputs": [
        {
          "name": "",
          "type": "uint8"
        }
      ],
      "payable": false,
      "stateMutability": "view",
      "type": "function",
      "signature": "0x4642e0ba"
    },
    {
      "constant": true,
      "inputs": [],
      "name": "owner",
      "outputs": [
        {
          "name": "",
          "type": "address"
        }
      ],
      "payable": false,
      "stateMutability": "view",
      "type": "function",
      "signature": "0x8da5cb5b"
    },
    {
      "constant": true,
      "inputs": [],
      "name": "EMPTY_ADDRESS",
      "outputs": [
        {
          "name": "",
          "type": "address"
        }
      ],
      "payable": false,
      "stateMutability": "view",
      "type": "function",
      "signature": "0xeb39c3af"
    },
    {
      "inputs": [],
      "payable": false,
      "stateMutability": "nonpayable",
      "type": "constructor",
      "signature": "constructor"
    },
    {
      "anonymous": false,
      "inputs": [
        {
          "indexed": false,
          "name": "company",
          "type": "address"
        },
        {
          "indexed": false,
          "name": "name",
          "type": "string"
        },
        {
          "indexed": true,
          "name": "owner",
          "type": "address"
        }
      ],
      "name": "KMPCompanyCreated",
      "type": "event",
      "signature": "0x0e5d9a817a72adb3a6f1c89938d5f51d9061962975fdf4e7919d5ffafe5e685a"
    },
    {
      "anonymous": false,
      "inputs": [
        {
          "indexed": true,
          "name": "company",
          "type": "address"
        },
        {
          "indexed": true,
          "name": "token",
          "type": "address"
        },
        {
          "indexed": false,
          "name": "name",
          "type": "string"
        },
        {
          "indexed": false,
          "name": "symbol",
          "type": "string"
        },
        {
          "indexed": false,
          "name": "initialAmount",
          "type": "uint256"
        }
      ],
      "name": "KMPTokenCreated",
      "type": "event",
      "signature": "0xa2ce4f9550df88b58f4cad01b350581df15a041206e349e853380412e108e4fa"
    },
    {
      "constant": false,
      "inputs": [
        {
          "name": "companyName",
          "type": "string"
        },
        {
          "name": "phone",
          "type": "string"
        },
        {
          "name": "url",
          "type": "string"
        },
        {
          "name": "did",
          "type": "string"
        },
        {
          "name": "uPortAddress",
          "type": "address"
        }
      ],
      "name": "createCompany",
      "outputs": [
        {
          "name": "",
          "type": "address"
        }
      ],
      "payable": false,
      "stateMutability": "nonpayable",
      "type": "function",
      "signature": "0xc0ab848b"
    },
    {
      "constant": false,
      "inputs": [
        {
          "name": "bcCompany",
          "type": "address"
        },
        {
          "name": "name",
          "type": "string"
        },
        {
          "name": "symbol",
          "type": "string"
        },
        {
          "name": "initialAmount",
          "type": "uint256"
        }
      ],
      "name": "createTokenForCompany",
      "outputs": [
        {
          "name": "",
          "type": "address"
        }
      ],
      "payable": false,
      "stateMutability": "nonpayable",
      "type": "function",
      "signature": "0x13c14253"
    },
    {
      "constant": true,
      "inputs": [
        {
          "name": "company",
          "type": "address"
        },
        {
          "name": "token",
          "type": "address"
        },
        {
          "name": "user",
          "type": "address"
        }
      ],
      "name": "getUserTokenBalance",
      "outputs": [
        {
          "name": "aBalance",
          "type": "uint256"
        }
      ],
      "payable": false,
      "stateMutability": "view",
      "type": "function",
      "signature": "0x2fee0c1a"
    },
    {
      "constant": false,
      "inputs": [],
      "name": "activateEmergency",
      "outputs": [
        {
          "name": "",
          "type": "bool"
        }
      ],
      "payable": false,
      "stateMutability": "nonpayable",
      "type": "function",
      "signature": "0x457e8b97"
    }
  ],
  "bytecode": "0x60806040526003805460ff1916905534801561001a57600080fd5b5060008054600160a060020a03191633179055610fef8061003c6000396000f3fe60806040526004361061007f5763ffffffff60e060020a60003504166313c1425381146100845780632fee0c1a1461017f57806338abeb43146101d657806340cb346214610201578063457e8b97146102365780634642e0ba1461025f5780638da5cb5b14610274578063c0ab848b14610289578063eb39c3af14610405575b600080fd5b34801561009057600080fd5b50610163600480360360808110156100a757600080fd5b600160a060020a0382351691908101906040810160208201356401000000008111156100d257600080fd5b8201836020820111156100e457600080fd5b8035906020019184600183028401116401000000008311171561010657600080fd5b91939092909160208101903564010000000081111561012457600080fd5b82018360208201111561013657600080fd5b8035906020019184600183028401116401000000008311171561015857600080fd5b91935091503561041a565b60408051600160a060020a039092168252519081900360200190f35b34801561018b57600080fd5b506101c4600480360360608110156101a257600080fd5b50600160a060020a038135811691602081013582169160409091013516610714565b60408051918252519081900360200190f35b3480156101e257600080fd5b506101eb610a90565b6040805160ff9092168252519081900360200190f35b34801561020d57600080fd5b506102346004803603602081101561022457600080fd5b5035600160a060020a0316610a95565b005b34801561024257600080fd5b5061024b610b4f565b604080519115158252519081900360200190f35b34801561026b57600080fd5b506101eb610c0e565b34801561028057600080fd5b50610163610c13565b34801561029557600080fd5b50610163600480360360a08110156102ac57600080fd5b8101906020810181356401000000008111156102c757600080fd5b8201836020820111156102d957600080fd5b803590602001918460018302840111640100000000831117156102fb57600080fd5b91939092909160208101903564010000000081111561031957600080fd5b82018360208201111561032b57600080fd5b8035906020019184600183028401116401000000008311171561034d57600080fd5b91939092909160208101903564010000000081111561036b57600080fd5b82018360208201111561037d57600080fd5b8035906020019184600183028401116401000000008311171561039f57600080fd5b9193909290916020810190356401000000008111156103bd57600080fd5b8201836020820111156103cf57600080fd5b803590602001918460018302840111640100000000831117156103f157600080fd5b919350915035600160a060020a0316610c22565b34801561041157600080fd5b50610163610fbe565b60035460009060ff161561042d57600080fd5b604080517ff5612fc300000000000000000000000000000000000000000000000000000000815260016004820152600160a060020a0389166024820152905173__CompanyUtil___________________________9163f5612fc3916044808301926020929190829003018186803b1580156104a757600080fd5b505af41580156104bb573d6000803e3d6000fd5b505050506040513d60208110156104d157600080fd5b505133600160a060020a03821614610559576040805160e560020a62461bcd02815260206004820152602c60248201527f4f6e6c7920636f6d70616e79206f776e65722063616e2065786563757465207460448201527f6869732066756e6374696f6e0000000000000000000000000000000000000000606482015290519081900360840190fd5b6000600173__TokenFactory__________________________635f43292790918b8b8b8b8b8b6040518863ffffffff1660e060020a0281526004018088815260200187600160a060020a0316600160a060020a0316815260200180602001806020018481526020018381038352888882818152602001925080828437600083820152601f01601f191690910184810383528681526020019050868680828437600081840152601f19601f820116905080830192505050995050505050505050505060206040518083038186803b15801561063257600080fd5b505af4158015610646573d6000803e3d6000fd5b505050506040513d602081101561065c57600080fd5b50516040805190810186905260608082528101899052909150600160a060020a0380831691908b16907fa2ce4f9550df88b58f4cad01b350581df15a041206e349e853380412e108e4fa908b908b908b908b908b90806020810160808201888880828437600083820152601f01601f191690910184810383528681526020019050868680828437600083820152604051601f909101601f1916909201829003995090975050505050505050a398975050505050505050565b604080517ff5612fc300000000000000000000000000000000000000000000000000000000815260016004820152600160a060020a0385166024820152905160009173__CompanyUtil___________________________9163f5612fc391604480820192602092909190829003018186803b15801561079257600080fd5b505af41580156107a6573d6000803e3d6000fd5b505050506040513d60208110156107bc57600080fd5b505133600160a060020a03821614610844576040805160e560020a62461bcd02815260206004820152602c60248201527f4f6e6c7920636f6d70616e79206f776e65722063616e2065786563757465207460448201527f6869732066756e6374696f6e0000000000000000000000000000000000000000606482015290519081900360840190fd5b604080517f3eb17e0d00000000000000000000000000000000000000000000000000000000815260016004820152600160a060020a03808816602483015286166044820152905173__TokenUtil_____________________________91633eb17e0d916064808301926020929190829003018186803b1580156108c657600080fd5b505af41580156108da573d6000803e3d6000fd5b505050506040513d60208110156108f057600080fd5b5051600160a060020a03161515610951576040805160e560020a62461bcd02815260206004820152601060248201527f546f6b656e206e6f7420666f756e642e00000000000000000000000000000000604482015290519081900360640190fd5b60408051600160a060020a0380861660248084019190915283518084039091018152604490920183526020820180517bffffffffffffffffffffffffffffffffffffffffffffffffffffffff167f70a08231000000000000000000000000000000000000000000000000000000001781529251825192936000936060938a1692869290918291908083835b602083106109fb5780518252601f1990920191602091820191016109dc565b6001836020036101000a038019825116818451168082178552505050505050905001915050600060405180830381855afa9150503d8060008114610a5b576040519150601f19603f3d011682016040523d82523d6000602084013e610a60565b606091505b50915091508115610a8557808060200190516020811015610a8057600080fd5b505194505b505050509392505050565b600581565b6000543390600160a060020a03168114610b1f576040805160e560020a62461bcd02815260206004820152602260248201527f4163636573732064656e6965642e20436f6d70616e79206f776e6572206f6e6c60448201527f792e000000000000000000000000000000000000000000000000000000000000606482015290519081900360840190fd5b506000805473ffffffffffffffffffffffffffffffffffffffff1916600160a060020a0392909216919091179055565b600080543390600160a060020a03168114610bda576040805160e560020a62461bcd02815260206004820152602260248201527f4163636573732064656e6965642e20436f6d70616e79206f776e6572206f6e6c60448201527f792e000000000000000000000000000000000000000000000000000000000000606482015290519081900360840190fd5b60035460ff161515610bf8576003805460ff19166001179055610c03565b6003805460ff191690555b505060035460ff1690565b600381565b600054600160a060020a031681565b60035460009060ff1615610c3557600080fd5b6000600173__CompanyFactory________________________63446b324390918d8d8d8d8d8d8d8d8d6040518b63ffffffff1660e060020a028152600401808b81526020018060200180602001806020018060200186600160a060020a0316600160a060020a0316815260200185810385528e8e82818152602001925080828437600083820152601f01601f191690910186810385528c815260200190508c8c80828437600083820152601f01601f191690910186810384528a815260200190508a8a80828437600083820152601f01601f191690910186810383528881526020019050888880828437600081840152601f19601f8201169050808301925050509e50505050505050505050505050505060206040518083038186803b158015610d5e57600080fd5b505af4158015610d72573d6000803e3d6000fd5b505050506040513d6020811015610d8857600080fd5b5051604080517f8da5cb5b0000000000000000000000000000000000000000000000000000000081529051919250600160a060020a03831691638da5cb5b91600480820192602092909190829003018186803b158015610de757600080fd5b505afa158015610dfb573d6000803e3d6000fd5b505050506040513d6020811015610e1157600080fd5b5051604080517f06fdde030000000000000000000000000000000000000000000000000000000081529051600160a060020a03928316927f0e5d9a817a72adb3a6f1c89938d5f51d9061962975fdf4e7919d5ffafe5e685a928592918316916306fdde0391600480820192600092909190829003018186803b158015610e9657600080fd5b505afa158015610eaa573d6000803e3d6000fd5b505050506040513d6000823e601f3d908101601f191682016040526020811015610ed357600080fd5b810190808051640100000000811115610eeb57600080fd5b82016020810184811115610efe57600080fd5b8151640100000000811182820187101715610f1857600080fd5b50509291905050506040518083600160a060020a0316600160a060020a0316815260200180602001828103825283818151815260200191508051906020019080838360005b83811015610f75578181015183820152602001610f5d565b50505050905090810190601f168015610fa25780820380516001836020036101000a031916815260200191505b50935050505060405180910390a29a9950505050505050505050565b60008156fea165627a7a72305820c2f8191cedf148f83ad4e4215e811772bb18d683fb46115b52d0fe63c9a14d7d0029",
  "source": "pragma solidity ^0.5.0;\n\nimport \"./Token.sol\";\nimport \"./Owned.sol\";\nimport \"./Company.sol\";\nimport \"./CompanyFactory.sol\";\nimport \"./TokenFactory.sol\";\nimport \"./CompanyUtil.sol\";\nimport \"./TokenUtil.sol\";\n\n\n/**\n    @author Juan Castellon\n    @title Platform main contract to expose functionality to users.\n    @dev Platform contract will allow  KMP Platform users to create \n        their own company and create their own tokens and persist\n        the data in the Blockchain. \n */\ncontract Platform is Owned {\n\n    /** Libraries */\n    /** @dev CompanyFactory library usage */\n    using CompanyFactory for CompanyFactory.Data;\n    /** @dev TokenFactory library usage */\n    using TokenFactory for CompanyFactory.Data;\n/** @dev TokenUtil library usage */\n    using TokenUtil for CompanyFactory.Data;\n/** @dev CompanyUtil library usage */\n    using CompanyUtil for CompanyFactory.Data;\n\n    /** Constants */\n    uint8 public constant MAX_OWNER_COMPANIES = 3; // 1 owner could register up to 3 companies.\n    uint8 public constant MAX_COMPANY_TOKENS = 5; // 1 company could register up to 5 tokens.\n    address public constant EMPTY_ADDRESS = address(0);\n\n    /** State variables */\n    CompanyFactory.Data private companyFactory;\n    bool internal stopped = false; // Circuit breaker\n\n    /** Events */\n    /** @dev \n            KMPCompanyCreated event emitted every time a company is \n            successfully created.\n        @param company new company created address.\n        @param name new company created name.\n        @param owner new company owner.address\n     */\n    event KMPCompanyCreated(\n        address company,\n        string name,\n        address indexed owner\n    );\n    \n    /** @dev \n            KMPTokenCreated event emitted every time a token is \n            successfully created.\n        @param company token company address.\n        @param token new token created address.\n        @param name token name\n        @param symbol 3 chars token symbol\n        @param initialAmount token total supply.\n     */\n    event KMPTokenCreated(\n        address indexed company,\n        address indexed token,\n        string name,\n        string symbol,\n        uint256 initialAmount\n    );\n\n    /** Modifiers */\n    /** @dev Verify that circuit breaker is not active. */\n    modifier stopInEmergency() {\n        require(!stopped);\n        _;\n    }\n\n    /** @dev Verify caller is company owner */\n    modifier onlyCompanyOwner(address companyOwner) {\n        require(\n            msg.sender == companyOwner,\n            \"Only company owner can execute this function\"\n        );\n        _;\n    }\n\n    /** Constructors */\n    /** @dev Platform contract owner is set on this constructor. */\n    constructor() public Owned() {}\n\n    /** Functions */\n    /** @dev This function lets users to create their company on the platform.\n        @param companyName name we will give to this company.\n        @param phone company's phone number.\n        @param url company's url.\n        @param did company uPort id (not used for now).\n        @param uPortAddress company uport Ethr address (not used for now).\n        @return the Company just created.\n        @notice emits KMPCompanyCreated event\n     */\n    function createCompany(\n        string calldata companyName,\n        string calldata phone,\n        string calldata url,\n        string calldata did,\n        address uPortAddress\n    ) \n        external \n        stopInEmergency \n        returns (Company) \n    {\n        Company newCompany = companyFactory.createCompany(\n            companyName,\n            phone,\n            url,\n            did,\n            uPortAddress\n        );\n        emit KMPCompanyCreated(\n            address(newCompany),\n            newCompany.name(),\n            newCompany.owner()\n        );\n        return newCompany;\n    }\n\n    /** @dev This function lets users to create a token on one of their\n            companies.\n        @param bcCompany address of the company that owns this token.\n        @param name token's name.\n        @param symbol token's 3 chars symbol.\n        @param initialAmount token total supply.\n        @return The instance of the token just created.\n        @notice emits KMPTokenCreated event\n     */\n    function createTokenForCompany(\n        address bcCompany,\n        string calldata name,\n        string calldata symbol,\n        uint256 initialAmount\n    )\n        external\n        stopInEmergency\n        onlyCompanyOwner(companyFactory.findCompanyOwner(bcCompany))\n        returns (Token)\n    {\n        Token newToken = companyFactory.createTokenForCompany(\n            bcCompany,\n            name,\n            symbol,\n            initialAmount\n        );\n        emit KMPTokenCreated(\n            bcCompany,\n            address(newToken),\n            name,\n            symbol,\n            initialAmount\n        );\n        return newToken;\n    }\n\n    /** @dev Retrieves the balance of a user for an specific token on a company.\n        @param company the address of the company.\n        @param token the address of the token.\n        @param user the address of the user that owns this token.\n        @return uint256 with user's token balance. \n     */\n    function getUserTokenBalance(\n        address company,\n        address token,\n        address user\n    )\n        external\n        view\n        onlyCompanyOwner(companyFactory.findCompanyOwner(company))\n        returns (uint256 aBalance)\n    {\n        require(\n            EMPTY_ADDRESS != companyFactory.findCompanyToken(company, token),\n            \"Token not found.\"\n        );\n        bytes memory payload = abi.encodeWithSignature(\n            \"balanceOf(address)\",\n            user\n        );\n        (bool result, bytes memory returnData) = token.staticcall(payload);\n        if (result) {\n            aBalance = abi.decode(returnData, (uint256));\n        }\n        return aBalance;\n    }\n\n\n    /** @dev Circuit breaker switch to pause this contract state changes or\n            resume.\n     */\n    function activateEmergency()\n        external\n        ownerOnly(msg.sender)\n        returns (bool)\n    {\n        if (stopped == false) {\n            stopped = true;\n        } else {\n            stopped = false;\n        }\n        return stopped;\n    }\n\n}\n",
  "sourcePath": "/home/juan/consensys/final/final-project-Juan-cc/kmp/contracts/Platform.sol",
  "compiler": {
    "name": "solc",
    "version": "0.5.0+commit.1d4f565a.Emscripten.clang"
  },
  "schemaVersion": "3.0.0",
  "updatedAt": "2019-01-26T21:19:16.693Z",
  "devdoc": {
    "author": "Juan Castellon",
    "details": "Platform contract will allow  KMP Platform users to create  their own company and create their own tokens and persist the data in the Blockchain. ",
    "methods": {
      "activateEmergency()": {
        "details": "Circuit breaker switch to pause this contract state changes or resume."
      },
      "constructor": {
        "details": "Platform contract owner is set on this constructor. "
      },
      "createCompany(string,string,string,string,address)": {
        "details": "This function lets users to create their company on the platform.",
        "params": {
          "companyName": "name we will give to this company.",
          "did": "company uPort id (not used for now).",
          "phone": "company's phone number.",
          "uPortAddress": "company uport Ethr address (not used for now).",
          "url": "company's url."
        },
        "return": "the Company just created."
      },
      "createTokenForCompany(address,string,string,uint256)": {
        "details": "This function lets users to create a token on one of their companies.",
        "params": {
          "bcCompany": "address of the company that owns this token.",
          "initialAmount": "token total supply.",
          "name": "token's name.",
          "symbol": "token's 3 chars symbol."
        },
        "return": "The instance of the token just created."
      },
      "getUserTokenBalance(address,address,address)": {
        "details": "Retrieves the balance of a user for an specific token on a company.",
        "params": {
          "company": "the address of the company.",
          "token": "the address of the token.",
          "user": "the address of the user that owns this token."
        },
        "return": "uint256 with user's token balance. "
      },
      "modifyOwner(address)": {
        "details": "This function will allow the owner of the contract to transfer  ownership to a new owner.",
        "params": {
          "anOwner": "new owner's address."
        }
      }
    },
    "title": "Platform main contract to expose functionality to users."
  },
  "userdoc": {
    "methods": {
      "createCompany(string,string,string,string,address)": {
        "notice": "emits KMPCompanyCreated event"
      },
      "createTokenForCompany(address,string,string,uint256)": {
        "notice": "emits KMPTokenCreated event"
      }
    }
  }
}