{
  "contractName": "Platform",
  "abi": [
    {
      "constant": true,
      "inputs": [],
      "name": "MAX_COMPANY_TOKENS",
      "outputs": [
        {
          "name": "",
          "type": "uint8"
        }
      ],
      "payable": false,
      "stateMutability": "view",
      "type": "function",
      "signature": "0x38abeb43"
    },
    {
      "constant": false,
      "inputs": [
        {
          "name": "anOwner",
          "type": "address"
        }
      ],
      "name": "modifyOwner",
      "outputs": [],
      "payable": false,
      "stateMutability": "nonpayable",
      "type": "function",
      "signature": "0x40cb3462"
    },
    {
      "constant": true,
      "inputs": [],
      "name": "MAX_OWNER_COMPANIES",
      "outputs": [
        {
          "name": "",
          "type": "uint8"
        }
      ],
      "payable": false,
      "stateMutability": "view",
      "type": "function",
      "signature": "0x4642e0ba"
    },
    {
      "constant": true,
      "inputs": [],
      "name": "owner",
      "outputs": [
        {
          "name": "",
          "type": "address"
        }
      ],
      "payable": false,
      "stateMutability": "view",
      "type": "function",
      "signature": "0x8da5cb5b"
    },
    {
      "constant": true,
      "inputs": [],
      "name": "EMPTY_ADDRESS",
      "outputs": [
        {
          "name": "",
          "type": "address"
        }
      ],
      "payable": false,
      "stateMutability": "view",
      "type": "function",
      "signature": "0xeb39c3af"
    },
    {
      "inputs": [],
      "payable": false,
      "stateMutability": "nonpayable",
      "type": "constructor",
      "signature": "constructor"
    },
    {
      "anonymous": false,
      "inputs": [
        {
          "indexed": false,
          "name": "company",
          "type": "address"
        },
        {
          "indexed": false,
          "name": "name",
          "type": "string"
        },
        {
          "indexed": true,
          "name": "owner",
          "type": "address"
        }
      ],
      "name": "KMPCompanyCreated",
      "type": "event",
      "signature": "0x0e5d9a817a72adb3a6f1c89938d5f51d9061962975fdf4e7919d5ffafe5e685a"
    },
    {
      "anonymous": false,
      "inputs": [
        {
          "indexed": true,
          "name": "company",
          "type": "address"
        },
        {
          "indexed": true,
          "name": "token",
          "type": "address"
        },
        {
          "indexed": false,
          "name": "name",
          "type": "string"
        },
        {
          "indexed": false,
          "name": "symbol",
          "type": "string"
        },
        {
          "indexed": false,
          "name": "initialAmount",
          "type": "uint256"
        }
      ],
      "name": "KMPTokenCreated",
      "type": "event",
      "signature": "0xa2ce4f9550df88b58f4cad01b350581df15a041206e349e853380412e108e4fa"
    },
    {
      "constant": false,
      "inputs": [
        {
          "name": "companyName",
          "type": "string"
        },
        {
          "name": "phone",
          "type": "string"
        },
        {
          "name": "url",
          "type": "string"
        },
        {
          "name": "did",
          "type": "string"
        },
        {
          "name": "uPortAddress",
          "type": "address"
        }
      ],
      "name": "createCompany",
      "outputs": [
        {
          "name": "",
          "type": "address"
        }
      ],
      "payable": false,
      "stateMutability": "nonpayable",
      "type": "function",
      "signature": "0xc0ab848b"
    },
    {
      "constant": false,
      "inputs": [
        {
          "name": "bcCompany",
          "type": "address"
        },
        {
          "name": "name",
          "type": "string"
        },
        {
          "name": "symbol",
          "type": "string"
        },
        {
          "name": "initialAmount",
          "type": "uint256"
        }
      ],
      "name": "createTokenForCompany",
      "outputs": [
        {
          "name": "",
          "type": "address"
        }
      ],
      "payable": false,
      "stateMutability": "nonpayable",
      "type": "function",
      "signature": "0x13c14253"
    },
    {
      "constant": true,
      "inputs": [
        {
          "name": "company",
          "type": "address"
        },
        {
          "name": "token",
          "type": "address"
        },
        {
          "name": "user",
          "type": "address"
        }
      ],
      "name": "getUserTokenBalance",
      "outputs": [
        {
          "name": "aBalance",
          "type": "uint256"
        }
      ],
      "payable": false,
      "stateMutability": "view",
      "type": "function",
      "signature": "0x2fee0c1a"
    },
    {
      "constant": true,
      "inputs": [
        {
          "name": "aCompany",
          "type": "address"
        }
      ],
      "name": "findCompanyOwnerUtil",
      "outputs": [
        {
          "name": "",
          "type": "address"
        }
      ],
      "payable": false,
      "stateMutability": "view",
      "type": "function",
      "signature": "0xe92cbdc6"
    },
    {
      "constant": true,
      "inputs": [
        {
          "name": "aCompany",
          "type": "address"
        },
        {
          "name": "aToken",
          "type": "address"
        }
      ],
      "name": "findCompanyTokenUtil",
      "outputs": [
        {
          "name": "",
          "type": "address"
        }
      ],
      "payable": false,
      "stateMutability": "view",
      "type": "function",
      "signature": "0x143c5603"
    },
    {
      "constant": false,
      "inputs": [],
      "name": "activateEmergency",
      "outputs": [
        {
          "name": "",
          "type": "bool"
        }
      ],
      "payable": false,
      "stateMutability": "nonpayable",
      "type": "function",
      "signature": "0x457e8b97"
    }
  ],
  "bytecode": "0x60806040526003805460ff1916905534801561001a57600080fd5b5060008054600160a060020a031916331790556111dc8061003c6000396000f3fe6080604052600436106100955763ffffffff60e060020a60003504166313c14253811461009a578063143c5603146101955780632fee0c1a146101d057806338abeb431461022757806340cb346214610252578063457e8b97146102875780634642e0ba146102b05780638da5cb5b146102c5578063c0ab848b146102da578063e92cbdc614610456578063eb39c3af14610489575b600080fd5b3480156100a657600080fd5b50610179600480360360808110156100bd57600080fd5b600160a060020a0382351691908101906040810160208201356401000000008111156100e857600080fd5b8201836020820111156100fa57600080fd5b8035906020019184600183028401116401000000008311171561011c57600080fd5b91939092909160208101903564010000000081111561013a57600080fd5b82018360208201111561014c57600080fd5b8035906020019184600183028401116401000000008311171561016e57600080fd5b91935091503561049e565b60408051600160a060020a039092168252519081900360200190f35b3480156101a157600080fd5b50610179600480360360408110156101b857600080fd5b50600160a060020a0381358116916020013516610798565b3480156101dc57600080fd5b50610215600480360360608110156101f357600080fd5b50600160a060020a038135811691602081013582169160409091013516610851565b60408051918252519081900360200190f35b34801561023357600080fd5b5061023c610bcd565b6040805160ff9092168252519081900360200190f35b34801561025e57600080fd5b506102856004803603602081101561027557600080fd5b5035600160a060020a0316610bd2565b005b34801561029357600080fd5b5061029c610c8c565b604080519115158252519081900360200190f35b3480156102bc57600080fd5b5061023c610d4b565b3480156102d157600080fd5b50610179610d50565b3480156102e657600080fd5b50610179600480360360a08110156102fd57600080fd5b81019060208101813564010000000081111561031857600080fd5b82018360208201111561032a57600080fd5b8035906020019184600183028401116401000000008311171561034c57600080fd5b91939092909160208101903564010000000081111561036a57600080fd5b82018360208201111561037c57600080fd5b8035906020019184600183028401116401000000008311171561039e57600080fd5b9193909290916020810190356401000000008111156103bc57600080fd5b8201836020820111156103ce57600080fd5b803590602001918460018302840111640100000000831117156103f057600080fd5b91939092909160208101903564010000000081111561040e57600080fd5b82018360208201111561042057600080fd5b8035906020019184600183028401116401000000008311171561044257600080fd5b919350915035600160a060020a0316610d5f565b34801561046257600080fd5b506101796004803603602081101561047957600080fd5b5035600160a060020a03166110fb565b34801561049557600080fd5b506101796111ab565b60035460009060ff16156104b157600080fd5b604080517ff5612fc300000000000000000000000000000000000000000000000000000000815260016004820152600160a060020a0389166024820152905173__CompanyUtil___________________________9163f5612fc3916044808301926020929190829003018186803b15801561052b57600080fd5b505af415801561053f573d6000803e3d6000fd5b505050506040513d602081101561055557600080fd5b505133600160a060020a038216146105dd576040805160e560020a62461bcd02815260206004820152602c60248201527f4f6e6c7920636f6d70616e79206f776e65722063616e2065786563757465207460448201527f6869732066756e6374696f6e0000000000000000000000000000000000000000606482015290519081900360840190fd5b6000600173__TokenFactory__________________________635f43292790918b8b8b8b8b8b6040518863ffffffff1660e060020a0281526004018088815260200187600160a060020a0316600160a060020a0316815260200180602001806020018481526020018381038352888882818152602001925080828437600083820152601f01601f191690910184810383528681526020019050868680828437600081840152601f19601f820116905080830192505050995050505050505050505060206040518083038186803b1580156106b657600080fd5b505af41580156106ca573d6000803e3d6000fd5b505050506040513d60208110156106e057600080fd5b50516040805190810186905260608082528101899052909150600160a060020a0380831691908b16907fa2ce4f9550df88b58f4cad01b350581df15a041206e349e853380412e108e4fa908b908b908b908b908b90806020810160808201888880828437600083820152601f01601f191690910184810383528681526020019050868680828437600083820152604051601f909101601f1916909201829003995090975050505050505050a398975050505050505050565b604080517f3eb17e0d00000000000000000000000000000000000000000000000000000000815260016004820152600160a060020a03808516602483015283166044820152905160009173__TokenUtil_____________________________91633eb17e0d91606480820192602092909190829003018186803b15801561081e57600080fd5b505af4158015610832573d6000803e3d6000fd5b505050506040513d602081101561084857600080fd5b50519392505050565b604080517ff5612fc300000000000000000000000000000000000000000000000000000000815260016004820152600160a060020a0385166024820152905160009173__CompanyUtil___________________________9163f5612fc391604480820192602092909190829003018186803b1580156108cf57600080fd5b505af41580156108e3573d6000803e3d6000fd5b505050506040513d60208110156108f957600080fd5b505133600160a060020a03821614610981576040805160e560020a62461bcd02815260206004820152602c60248201527f4f6e6c7920636f6d70616e79206f776e65722063616e2065786563757465207460448201527f6869732066756e6374696f6e0000000000000000000000000000000000000000606482015290519081900360840190fd5b604080517f3eb17e0d00000000000000000000000000000000000000000000000000000000815260016004820152600160a060020a03808816602483015286166044820152905173__TokenUtil_____________________________91633eb17e0d916064808301926020929190829003018186803b158015610a0357600080fd5b505af4158015610a17573d6000803e3d6000fd5b505050506040513d6020811015610a2d57600080fd5b5051600160a060020a03161515610a8e576040805160e560020a62461bcd02815260206004820152601060248201527f546f6b656e206e6f7420666f756e642e00000000000000000000000000000000604482015290519081900360640190fd5b60408051600160a060020a0380861660248084019190915283518084039091018152604490920183526020820180517bffffffffffffffffffffffffffffffffffffffffffffffffffffffff167f70a08231000000000000000000000000000000000000000000000000000000001781529251825192936000936060938a1692869290918291908083835b60208310610b385780518252601f199092019160209182019101610b19565b6001836020036101000a038019825116818451168082178552505050505050905001915050600060405180830381855afa9150503d8060008114610b98576040519150601f19603f3d011682016040523d82523d6000602084013e610b9d565b606091505b50915091508115610bc257808060200190516020811015610bbd57600080fd5b505194505b505050509392505050565b600581565b6000543390600160a060020a03168114610c5c576040805160e560020a62461bcd02815260206004820152602260248201527f4163636573732064656e6965642e20436f6d70616e79206f776e6572206f6e6c60448201527f792e000000000000000000000000000000000000000000000000000000000000606482015290519081900360840190fd5b506000805473ffffffffffffffffffffffffffffffffffffffff1916600160a060020a0392909216919091179055565b600080543390600160a060020a03168114610d17576040805160e560020a62461bcd02815260206004820152602260248201527f4163636573732064656e6965642e20436f6d70616e79206f776e6572206f6e6c60448201527f792e000000000000000000000000000000000000000000000000000000000000606482015290519081900360840190fd5b60035460ff161515610d35576003805460ff19166001179055610d40565b6003805460ff191690555b505060035460ff1690565b600381565b600054600160a060020a031681565b60035460009060ff1615610d7257600080fd5b6000600173__CompanyFactory________________________63446b324390918d8d8d8d8d8d8d8d8d6040518b63ffffffff1660e060020a028152600401808b81526020018060200180602001806020018060200186600160a060020a0316600160a060020a0316815260200185810385528e8e82818152602001925080828437600083820152601f01601f191690910186810385528c815260200190508c8c80828437600083820152601f01601f191690910186810384528a815260200190508a8a80828437600083820152601f01601f191690910186810383528881526020019050888880828437600081840152601f19601f8201169050808301925050509e50505050505050505050505050505060206040518083038186803b158015610e9b57600080fd5b505af4158015610eaf573d6000803e3d6000fd5b505050506040513d6020811015610ec557600080fd5b5051604080517f8da5cb5b0000000000000000000000000000000000000000000000000000000081529051919250600160a060020a03831691638da5cb5b91600480820192602092909190829003018186803b158015610f2457600080fd5b505afa158015610f38573d6000803e3d6000fd5b505050506040513d6020811015610f4e57600080fd5b5051604080517f06fdde030000000000000000000000000000000000000000000000000000000081529051600160a060020a03928316927f0e5d9a817a72adb3a6f1c89938d5f51d9061962975fdf4e7919d5ffafe5e685a928592918316916306fdde0391600480820192600092909190829003018186803b158015610fd357600080fd5b505afa158015610fe7573d6000803e3d6000fd5b505050506040513d6000823e601f3d908101601f19168201604052602081101561101057600080fd5b81019080805164010000000081111561102857600080fd5b8201602081018481111561103b57600080fd5b815164010000000081118282018710171561105557600080fd5b50509291905050506040518083600160a060020a0316600160a060020a0316815260200180602001828103825283818151815260200191508051906020019080838360005b838110156110b257818101518382015260200161109a565b50505050905090810190601f1680156110df5780820380516001836020036101000a031916815260200191505b50935050505060405180910390a29a9950505050505050505050565b604080517ff5612fc300000000000000000000000000000000000000000000000000000000815260016004820152600160a060020a0383166024820152905160009173__CompanyUtil___________________________9163f5612fc391604480820192602092909190829003018186803b15801561117957600080fd5b505af415801561118d573d6000803e3d6000fd5b505050506040513d60208110156111a357600080fd5b505192915050565b60008156fea165627a7a723058202c63fa3989c92222348478d62c505fe48565e0d7f7b9f3374147ac35df8422a20029",
  "source": "pragma solidity ^0.5.0;\n\nimport \"./Token.sol\";\nimport \"./Owned.sol\";\nimport \"./Company.sol\";\nimport \"./CompanyFactory.sol\";\nimport \"./TokenFactory.sol\";\nimport \"./CompanyUtil.sol\";\nimport \"./TokenUtil.sol\";\n\n\n/**\n    @author Juan Castellon\n    @title Platform main contract to expose functionality to users.\n    @dev Platform contract will allow  KMP Platform users to create \n        their own company and create their own tokens and persist\n        the data in the Blockchain. \n */\ncontract Platform is Owned {\n\n    /** Libraries */\n    /** @dev CompanyFactory library usage */\n    using CompanyFactory for CompanyFactory.Data;\n    /** @dev TokenFactory library usage */\n    using TokenFactory for CompanyFactory.Data;\n    /** @dev TokenUtil library usage */\n    using TokenUtil for CompanyFactory.Data;\n    /** @dev CompanyUtil library usage */\n    using CompanyUtil for CompanyFactory.Data;\n\n    /** Constants */\n    uint8 public constant MAX_OWNER_COMPANIES = 3; // 1 owner could register up to 3 companies.\n    uint8 public constant MAX_COMPANY_TOKENS = 5; // 1 company could register up to 5 tokens.\n    address public constant EMPTY_ADDRESS = address(0);\n\n    /** State variables */\n    CompanyFactory.Data private platformData;\n    bool internal stopped = false; // Circuit breaker\n\n    /** Events */\n    /** @dev \n            KMPCompanyCreated event emitted every time a company is \n            successfully created.\n        @param company new company created address.\n        @param name new company created name.\n        @param owner new company owner.address\n     */\n    event KMPCompanyCreated(\n        address company,\n        string name,\n        address indexed owner\n    );\n    \n    /** @dev \n            KMPTokenCreated event emitted every time a token is \n            successfully created.\n        @param company token company address.\n        @param token new token created address.\n        @param name token name\n        @param symbol 3 chars token symbol\n        @param initialAmount token total supply.\n     */\n    event KMPTokenCreated(\n        address indexed company,\n        address indexed token,\n        string name,\n        string symbol,\n        uint256 initialAmount\n    );\n\n    /** Modifiers */\n    /** @dev Verify that circuit breaker is not active. */\n    modifier stopInEmergency() {\n        require(!stopped);\n        _;\n    }\n\n    /** @dev Verify caller is company owner */\n    modifier onlyCompanyOwner(address companyOwner) {\n        require(\n            msg.sender == companyOwner,\n            \"Only company owner can execute this function\"\n        );\n        _;\n    }\n\n    /** Constructors */\n    /** @dev Platform contract owner is set on this constructor. */\n    constructor() public Owned() {}\n\n    /** Functions */\n    /** @dev This function lets users to create their company on the platform.\n        @param companyName name we will give to this company.\n        @param phone company's phone number.\n        @param url company's url.\n        @param did company uPort id (not used for now).\n        @param uPortAddress company uport Ethr address (not used for now).\n        @return the Company just created.\n        @notice emits KMPCompanyCreated event\n     */\n    function createCompany(\n        string calldata companyName,\n        string calldata phone,\n        string calldata url,\n        string calldata did,\n        address uPortAddress\n    ) \n        external \n        stopInEmergency \n        returns (Company) \n    {\n        Company newCompany = platformData.createCompany(\n            companyName,\n            phone,\n            url,\n            did,\n            uPortAddress\n        );\n        emit KMPCompanyCreated(\n            address(newCompany),\n            newCompany.name(),\n            newCompany.owner()\n        );\n        return newCompany;\n    }\n\n    /** @dev This function lets users to create a token on one of their\n            companies.\n        @param bcCompany address of the company that owns this token.\n        @param name token's name.\n        @param symbol token's 3 chars symbol.\n        @param initialAmount token total supply.\n        @return The instance of the token just created.\n        @notice emits KMPTokenCreated event\n     */\n    function createTokenForCompany(\n        address bcCompany,\n        string calldata name,\n        string calldata symbol,\n        uint256 initialAmount\n    )\n        external\n        stopInEmergency\n        onlyCompanyOwner(platformData.findCompanyOwner(bcCompany))\n        returns (Token)\n    {\n        Token newToken = platformData.createTokenForCompany(\n            bcCompany,\n            name,\n            symbol,\n            initialAmount\n        );\n        emit KMPTokenCreated(\n            bcCompany,\n            address(newToken),\n            name,\n            symbol,\n            initialAmount\n        );\n        return newToken;\n    }\n\n    /** @dev Retrieves the balance of a user for an specific token on a company.\n        @param company the address of the company.\n        @param token the address of the token.\n        @param user the address of the user that owns this token.\n        @return uint256 with user's token balance. \n     */\n    function getUserTokenBalance(\n        address company,\n        address token,\n        address user\n    )\n        external\n        view\n        onlyCompanyOwner(platformData.findCompanyOwner(company))\n        returns (uint256 aBalance)\n    {\n        require(\n            EMPTY_ADDRESS != platformData.findCompanyToken(company, token),\n            \"Token not found.\"\n        );\n        bytes memory payload = abi.encodeWithSignature(\n            \"balanceOf(address)\",\n            user\n        );\n        (bool result, bytes memory returnData) = token.staticcall(payload);\n        if (result) {\n            aBalance = abi.decode(returnData, (uint256));\n        }\n        return aBalance;\n    }\n\n    /** @dev This is a util function to expose functionality of the CompanyUtil\n            Library. It looks for the company on the companies array for this \n            specific owner. If the company is found for this msg.sender then we\n            return the owner, in case the company is not found in the companies\n            array 0x is returned.\n        @param aCompany company address to search for owner.\n        @return the owner's address or 0x if not found.\n     */\n    function findCompanyOwnerUtil(address aCompany) \n        external\n        view\n        returns (address)\n    {\n        return platformData.findCompanyOwner(aCompany);\n    }\n\n    /** @dev This is a util function to expose functionality of the TokenUtil\n            Library. Look for a token inside a company list of tokens.\n        @param aCompany company address to search\n        @param aToken token address to search\n        @return token address if found, 0x if not found. \n     */\n    function findCompanyTokenUtil(address aCompany, address aToken) \n        external\n        view\n        returns (address)\n    {\n        return platformData.findCompanyToken(aCompany, aToken);\n    }\n\n    /** @dev Circuit breaker switch to pause this contract state changes or\n            resume.\n     */\n    function activateEmergency()\n        external\n        ownerOnly(msg.sender)\n        returns (bool)\n    {\n        if (stopped == false) {\n            stopped = true;\n        } else {\n            stopped = false;\n        }\n        return stopped;\n    }\n\n}\n",
  "sourcePath": "/home/juan/consensys/final/final-project-Juan-cc/kmp/contracts/Platform.sol",
  "compiler": {
    "name": "solc",
    "version": "0.5.0+commit.1d4f565a.Emscripten.clang"
  },
  "schemaVersion": "3.0.0",
  "updatedAt": "2019-01-27T03:19:28.995Z",
  "devdoc": {
    "author": "Juan Castellon",
    "details": "Platform contract will allow  KMP Platform users to create  their own company and create their own tokens and persist the data in the Blockchain. ",
    "methods": {
      "activateEmergency()": {
        "details": "Circuit breaker switch to pause this contract state changes or resume."
      },
      "constructor": {
        "details": "Platform contract owner is set on this constructor. "
      },
      "createCompany(string,string,string,string,address)": {
        "details": "This function lets users to create their company on the platform.",
        "params": {
          "companyName": "name we will give to this company.",
          "did": "company uPort id (not used for now).",
          "phone": "company's phone number.",
          "uPortAddress": "company uport Ethr address (not used for now).",
          "url": "company's url."
        },
        "return": "the Company just created."
      },
      "createTokenForCompany(address,string,string,uint256)": {
        "details": "This function lets users to create a token on one of their companies.",
        "params": {
          "bcCompany": "address of the company that owns this token.",
          "initialAmount": "token total supply.",
          "name": "token's name.",
          "symbol": "token's 3 chars symbol."
        },
        "return": "The instance of the token just created."
      },
      "findCompanyOwnerUtil(address)": {
        "details": "This is a util function to expose functionality of the CompanyUtil Library. It looks for the company on the companies array for this  specific owner. If the company is found for this msg.sender then we return the owner, in case the company is not found in the companies array 0x is returned.",
        "params": {
          "aCompany": "company address to search for owner."
        },
        "return": "the owner's address or 0x if not found."
      },
      "findCompanyTokenUtil(address,address)": {
        "details": "This is a util function to expose functionality of the TokenUtil Library. Look for a token inside a company list of tokens.",
        "params": {
          "aCompany": "company address to search",
          "aToken": "token address to search"
        },
        "return": "token address if found, 0x if not found. "
      },
      "getUserTokenBalance(address,address,address)": {
        "details": "Retrieves the balance of a user for an specific token on a company.",
        "params": {
          "company": "the address of the company.",
          "token": "the address of the token.",
          "user": "the address of the user that owns this token."
        },
        "return": "uint256 with user's token balance. "
      },
      "modifyOwner(address)": {
        "details": "This function will allow the owner of the contract to transfer  ownership to a new owner.",
        "params": {
          "anOwner": "new owner's address."
        }
      }
    },
    "title": "Platform main contract to expose functionality to users."
  },
  "userdoc": {
    "methods": {
      "createCompany(string,string,string,string,address)": {
        "notice": "emits KMPCompanyCreated event"
      },
      "createTokenForCompany(address,string,string,uint256)": {
        "notice": "emits KMPTokenCreated event"
      }
    }
  }
}