{
  "contractName": "Platform",
  "abi": [
    {
      "constant": true,
      "inputs": [],
      "name": "MAX_COMPANY_TOKENS",
      "outputs": [
        {
          "name": "",
          "type": "uint8"
        }
      ],
      "payable": false,
      "stateMutability": "view",
      "type": "function",
      "signature": "0x38abeb43"
    },
    {
      "constant": false,
      "inputs": [
        {
          "name": "_owner",
          "type": "address"
        }
      ],
      "name": "modifyOwner",
      "outputs": [],
      "payable": false,
      "stateMutability": "nonpayable",
      "type": "function",
      "signature": "0x40cb3462"
    },
    {
      "constant": true,
      "inputs": [],
      "name": "MAX_OWNER_COMPANIES",
      "outputs": [
        {
          "name": "",
          "type": "uint8"
        }
      ],
      "payable": false,
      "stateMutability": "view",
      "type": "function",
      "signature": "0x4642e0ba"
    },
    {
      "constant": true,
      "inputs": [],
      "name": "owner",
      "outputs": [
        {
          "name": "",
          "type": "address"
        }
      ],
      "payable": false,
      "stateMutability": "view",
      "type": "function",
      "signature": "0x8da5cb5b"
    },
    {
      "constant": true,
      "inputs": [],
      "name": "EMPTY_ADDRESS",
      "outputs": [
        {
          "name": "",
          "type": "address"
        }
      ],
      "payable": false,
      "stateMutability": "view",
      "type": "function",
      "signature": "0xeb39c3af"
    },
    {
      "inputs": [],
      "payable": false,
      "stateMutability": "nonpayable",
      "type": "constructor",
      "signature": "constructor"
    },
    {
      "anonymous": false,
      "inputs": [
        {
          "indexed": false,
          "name": "company",
          "type": "address"
        },
        {
          "indexed": false,
          "name": "name",
          "type": "string"
        },
        {
          "indexed": true,
          "name": "owner",
          "type": "address"
        }
      ],
      "name": "KMPCompanyCreated",
      "type": "event",
      "signature": "0x0e5d9a817a72adb3a6f1c89938d5f51d9061962975fdf4e7919d5ffafe5e685a"
    },
    {
      "anonymous": false,
      "inputs": [
        {
          "indexed": true,
          "name": "company",
          "type": "address"
        },
        {
          "indexed": true,
          "name": "token",
          "type": "address"
        },
        {
          "indexed": false,
          "name": "name",
          "type": "string"
        },
        {
          "indexed": false,
          "name": "symbol",
          "type": "string"
        },
        {
          "indexed": false,
          "name": "initialAmount",
          "type": "uint256"
        }
      ],
      "name": "KMPTokenCreated",
      "type": "event",
      "signature": "0xa2ce4f9550df88b58f4cad01b350581df15a041206e349e853380412e108e4fa"
    },
    {
      "constant": false,
      "inputs": [
        {
          "name": "companyName",
          "type": "string"
        },
        {
          "name": "phone",
          "type": "string"
        },
        {
          "name": "url",
          "type": "string"
        },
        {
          "name": "did",
          "type": "string"
        },
        {
          "name": "uPortAddress",
          "type": "address"
        }
      ],
      "name": "createCompany",
      "outputs": [
        {
          "name": "",
          "type": "address"
        }
      ],
      "payable": false,
      "stateMutability": "nonpayable",
      "type": "function",
      "signature": "0xc0ab848b"
    },
    {
      "constant": false,
      "inputs": [
        {
          "name": "bcCompany",
          "type": "address"
        },
        {
          "name": "name",
          "type": "string"
        },
        {
          "name": "symbol",
          "type": "string"
        },
        {
          "name": "initialAmount",
          "type": "uint256"
        }
      ],
      "name": "createTokenForCompany",
      "outputs": [
        {
          "name": "",
          "type": "address"
        }
      ],
      "payable": false,
      "stateMutability": "nonpayable",
      "type": "function",
      "signature": "0x13c14253"
    },
    {
      "constant": true,
      "inputs": [
        {
          "name": "company",
          "type": "address"
        },
        {
          "name": "token",
          "type": "address"
        },
        {
          "name": "user",
          "type": "address"
        }
      ],
      "name": "getUserTokenBalance",
      "outputs": [
        {
          "name": "aBalance",
          "type": "uint256"
        }
      ],
      "payable": false,
      "stateMutability": "view",
      "type": "function",
      "signature": "0x2fee0c1a"
    },
    {
      "constant": true,
      "inputs": [
        {
          "name": "company",
          "type": "address"
        }
      ],
      "name": "findCompanyOwnerUtil",
      "outputs": [
        {
          "name": "",
          "type": "address"
        }
      ],
      "payable": false,
      "stateMutability": "view",
      "type": "function",
      "signature": "0xe92cbdc6"
    },
    {
      "constant": false,
      "inputs": [],
      "name": "activateEmergency",
      "outputs": [
        {
          "name": "",
          "type": "bool"
        }
      ],
      "payable": false,
      "stateMutability": "nonpayable",
      "type": "function",
      "signature": "0x457e8b97"
    },
    {
      "constant": true,
      "inputs": [
        {
          "name": "aCompany",
          "type": "address"
        },
        {
          "name": "aToken",
          "type": "address"
        }
      ],
      "name": "tokenInCompany",
      "outputs": [
        {
          "name": "",
          "type": "bool"
        }
      ],
      "payable": false,
      "stateMutability": "view",
      "type": "function",
      "signature": "0xba4d527e"
    },
    {
      "constant": true,
      "inputs": [
        {
          "name": "aCompany",
          "type": "address"
        },
        {
          "name": "aToken",
          "type": "address"
        }
      ],
      "name": "findCompanyToken",
      "outputs": [
        {
          "name": "",
          "type": "address"
        }
      ],
      "payable": false,
      "stateMutability": "view",
      "type": "function",
      "signature": "0x4dd85491"
    }
  ],
  "bytecode": "0x60806040526003805460ff1916905534801561001a57600080fd5b5060008054600160a060020a031916331790556111b88061003c6000396000f3fe6080604052600436106100a05763ffffffff60e060020a60003504166313c1425381146100a55780632fee0c1a146101a057806338abeb43146101f757806340cb346214610222578063457e8b97146102575780634642e0ba146102805780634dd85491146102955780638da5cb5b146102d0578063ba4d527e146102e5578063c0ab848b14610320578063e92cbdc61461049c578063eb39c3af146104cf575b600080fd5b3480156100b157600080fd5b50610184600480360360808110156100c857600080fd5b600160a060020a0382351691908101906040810160208201356401000000008111156100f357600080fd5b82018360208201111561010557600080fd5b8035906020019184600183028401116401000000008311171561012757600080fd5b91939092909160208101903564010000000081111561014557600080fd5b82018360208201111561015757600080fd5b8035906020019184600183028401116401000000008311171561017957600080fd5b9193509150356104e4565b60408051600160a060020a039092168252519081900360200190f35b3480156101ac57600080fd5b506101e5600480360360608110156101c357600080fd5b50600160a060020a038135811691602081013582169160409091013516610741565b60408051918252519081900360200190f35b34801561020357600080fd5b5061020c61097a565b6040805160ff9092168252519081900360200190f35b34801561022e57600080fd5b506102556004803603602081101561024557600080fd5b5035600160a060020a031661097f565b005b34801561026357600080fd5b5061026c610a39565b604080519115158252519081900360200190f35b34801561028c57600080fd5b5061020c610af8565b3480156102a157600080fd5b50610184600480360360408110156102b857600080fd5b50600160a060020a0381358116916020013516610afd565b3480156102dc57600080fd5b50610184610b1f565b3480156102f157600080fd5b5061026c6004803603604081101561030857600080fd5b50600160a060020a0381358116916020013516610b2e565b34801561032c57600080fd5b50610184600480360360a081101561034357600080fd5b81019060208101813564010000000081111561035e57600080fd5b82018360208201111561037057600080fd5b8035906020019184600183028401116401000000008311171561039257600080fd5b9193909290916020810190356401000000008111156103b057600080fd5b8201836020820111156103c257600080fd5b803590602001918460018302840111640100000000831117156103e457600080fd5b91939092909160208101903564010000000081111561040257600080fd5b82018360208201111561041457600080fd5b8035906020019184600183028401116401000000008311171561043657600080fd5b91939092909160208101903564010000000081111561045457600080fd5b82018360208201111561046657600080fd5b8035906020019184600183028401116401000000008311171561048857600080fd5b919350915035600160a060020a0316610c75565b3480156104a857600080fd5b50610184600480360360208110156104bf57600080fd5b5035600160a060020a0316611011565b3480156104db57600080fd5b50610184611024565b60035460009060ff16156104f757600080fd5b61050087611029565b33600160a060020a03821614610586576040805160e560020a62461bcd02815260206004820152602c60248201527f4f6e6c7920636f6d70616e79206f776e65722063616e2065786563757465207460448201527f6869732066756e6374696f6e0000000000000000000000000000000000000000606482015290519081900360840190fd5b6000600173__TokenFactory__________________________635f43292790918b8b8b8b8b8b6040518863ffffffff1660e060020a0281526004018088815260200187600160a060020a0316600160a060020a0316815260200180602001806020018481526020018381038352888882818152602001925080828437600083820152601f01601f191690910184810383528681526020019050868680828437600081840152601f19601f820116905080830192505050995050505050505050505060206040518083038186803b15801561065f57600080fd5b505af4158015610673573d6000803e3d6000fd5b505050506040513d602081101561068957600080fd5b50516040805190810186905260608082528101899052909150600160a060020a0380831691908b16907fa2ce4f9550df88b58f4cad01b350581df15a041206e349e853380412e108e4fa908b908b908b908b908b90806020810160808201888880828437600083820152601f01601f191690910184810383528681526020019050868680828437600083820152604051601f909101601f1916909201829003995090975050505050505050a398975050505050505050565b600061074c84611029565b33600160a060020a038216146107d2576040805160e560020a62461bcd02815260206004820152602c60248201527f4f6e6c7920636f6d70616e79206f776e65722063616e2065786563757465207460448201527f6869732066756e6374696f6e0000000000000000000000000000000000000000606482015290519081900360840190fd5b6107dc8585610afd565b600160a060020a0316151561083b576040805160e560020a62461bcd02815260206004820152601060248201527f546f6b656e206e6f7420666f756e642e00000000000000000000000000000000604482015290519081900360640190fd5b60408051600160a060020a0380861660248084019190915283518084039091018152604490920183526020820180517bffffffffffffffffffffffffffffffffffffffffffffffffffffffff167f70a08231000000000000000000000000000000000000000000000000000000001781529251825192936000936060938a1692869290918291908083835b602083106108e55780518252601f1990920191602091820191016108c6565b6001836020036101000a038019825116818451168082178552505050505050905001915050600060405180830381855afa9150503d8060008114610945576040519150601f19603f3d011682016040523d82523d6000602084013e61094a565b606091505b5091509150811561096f5780806020019051602081101561096a57600080fd5b505194505b505050509392505050565b600581565b6000543390600160a060020a03168114610a09576040805160e560020a62461bcd02815260206004820152602260248201527f4163636573732064656e6965642e20436f6d70616e79206f776e6572206f6e6c60448201527f792e000000000000000000000000000000000000000000000000000000000000606482015290519081900360840190fd5b506000805473ffffffffffffffffffffffffffffffffffffffff1916600160a060020a0392909216919091179055565b600080543390600160a060020a03168114610ac4576040805160e560020a62461bcd02815260206004820152602260248201527f4163636573732064656e6965642e20436f6d70616e79206f776e6572206f6e6c60448201527f792e000000000000000000000000000000000000000000000000000000000000606482015290519081900360840190fd5b60035460ff161515610ae2576003805460ff19166001179055610aed565b6003805460ff191690555b505060035460ff1690565b600381565b6000610b098383610b2e565b15610b15575080610b19565b5060005b92915050565b600054600160a060020a031681565b6000610b3983611029565b33600160a060020a03821614610bbf576040805160e560020a62461bcd02815260206004820152602c60248201527f4f6e6c7920636f6d70616e79206f776e65722063616e2065786563757465207460448201527f6869732066756e6374696f6e0000000000000000000000000000000000000000606482015290519081900360840190fd5b610bc761114e565b600160a060020a03851660009081526002602052604090819020815160a08101928390529160059082845b8154600160a060020a03168152600190910190602001808311610bf25750939450600093505050505b600560ff82161015610c6757600160a060020a0385168260ff831660058110610c4057fe5b6020020151600160a060020a03161415610c5f57600193505050610c6e565b600101610c1b565b5060009250505b5092915050565b60035460009060ff1615610c8857600080fd5b6000600173__CompanyFactory________________________63446b324390918d8d8d8d8d8d8d8d8d6040518b63ffffffff1660e060020a028152600401808b81526020018060200180602001806020018060200186600160a060020a0316600160a060020a0316815260200185810385528e8e82818152602001925080828437600083820152601f01601f191690910186810385528c815260200190508c8c80828437600083820152601f01601f191690910186810384528a815260200190508a8a80828437600083820152601f01601f191690910186810383528881526020019050888880828437600081840152601f19601f8201169050808301925050509e50505050505050505050505050505060206040518083038186803b158015610db157600080fd5b505af4158015610dc5573d6000803e3d6000fd5b505050506040513d6020811015610ddb57600080fd5b5051604080517f8da5cb5b0000000000000000000000000000000000000000000000000000000081529051919250600160a060020a03831691638da5cb5b91600480820192602092909190829003018186803b158015610e3a57600080fd5b505afa158015610e4e573d6000803e3d6000fd5b505050506040513d6020811015610e6457600080fd5b5051604080517f06fdde030000000000000000000000000000000000000000000000000000000081529051600160a060020a03928316927f0e5d9a817a72adb3a6f1c89938d5f51d9061962975fdf4e7919d5ffafe5e685a928592918316916306fdde0391600480820192600092909190829003018186803b158015610ee957600080fd5b505afa158015610efd573d6000803e3d6000fd5b505050506040513d6000823e601f3d908101601f191682016040526020811015610f2657600080fd5b810190808051640100000000811115610f3e57600080fd5b82016020810184811115610f5157600080fd5b8151640100000000811182820187101715610f6b57600080fd5b50509291905050506040518083600160a060020a0316600160a060020a0316815260200180602001828103825283818151815260200191508051906020019080838360005b83811015610fc8578181015183820152602001610fb0565b50505050905090810190601f168015610ff55780820380516001836020036101000a031916815260200191505b50935050505060405180910390a29a9950505050505050505050565b600061101c82611029565b90505b919050565b600081565b600061103361116d565b3360009081526001602052604090819020815160608101928390529160039082845b8154600160a060020a031681526001909101906020018083116110555750939450600093505050505b600360ff8216101561114457600160a060020a0384168260ff8316600381106110a357fe5b6020020151600160a060020a0316141561113c578160ff8216600381106110c657fe5b6020020151600160a060020a0316638da5cb5b6040518163ffffffff1660e060020a02815260040160206040518083038186803b15801561110657600080fd5b505afa15801561111a573d6000803e3d6000fd5b505050506040513d602081101561113057600080fd5b5051925061101f915050565b60010161107e565b5060009392505050565b60a0604051908101604052806005906020820280388339509192915050565b606060405190810160405280600390602082028038833950919291505056fea165627a7a72305820b64ae4722c4668b392e2d48466c40249c67513d7c25d9585eb32b70188e768070029",
  "source": "pragma solidity ^0.5.0;\n\nimport \"./Token.sol\";\nimport \"./Owned.sol\";\nimport \"./Company.sol\";\nimport \"./CompanyFactory.sol\";\nimport \"./TokenFactory.sol\";\n\n\n/**\n    @author Juan Castellon\n    @title Platform main contract to expose functionality to users.\n    @notice \n        Platform contract will allow  KMP Platform users to create \n        their own company and create their own tokens. \n */\ncontract Platform is Owned {\n\n    /** @dev CompanyFactory library usage */\n    using CompanyFactory for CompanyFactory.Data;\n    /** @dev TokenFactory library usage */\n    using TokenFactory for CompanyFactory.Data;\n\n    /** Constants */\n    uint8 public constant MAX_OWNER_COMPANIES = 3; // 1 owner could register up to 3 companies.\n    uint8 public constant MAX_COMPANY_TOKENS = 5; // 1 company could register up to 5 tokens.\n    address public constant EMPTY_ADDRESS = address(0);\n\n    /** State variables */\n    CompanyFactory.Data private companyFactory;\n    bool internal stopped = false; // Circuit breaker\n\n    /** Events */\n    /** @dev \n            KMPCompanyCreated event emitted every time a company is \n            successfully created.\n        @param company new company created address.\n        @param name new company created name.\n        @param owner new company owner.address\n     */\n    event KMPCompanyCreated(\n        address company,\n        string name,\n        address indexed owner\n    );\n    \n    /** @dev \n            KMPTokenCreated event emitted every time a token is \n            successfully created.\n        @param company token company address.\n        @param token new token created address.\n        @param name token name\n        @param symbol 3 chars token symbol\n        @param initialAmount token total supply.\n     */\n    event KMPTokenCreated(\n        address indexed company,\n        address indexed token,\n        string name,\n        string symbol,\n        uint256 initialAmount\n    );\n\n    /** @dev Verify that circuit breaker is not active. */\n    modifier stopInEmergency() {\n        require(!stopped);\n        _;\n    }\n\n    /** @dev Verify caller is company owner */\n    modifier onlyCompanyOwner(address companyOwner) {\n        require(\n            msg.sender == companyOwner,\n            \"Only company owner can execute this function\"\n        );\n        _;\n    }\n\n    /** @dev Platform contract owner is set on this constructor. */\n    constructor() public Owned() {}\n\n    /** @dev\n            This function lets users to create their company on the platform.\n        @param companyName name we will give to this company.\n        @param phone company's phone number.\n        @param url company's url.\n        @param did company uPort id (not used for now).\n        @param uPortAddress company uport Ethr address (not used for now).\n        @return the Company just created.\n     */\n    function createCompany(\n        string calldata companyName,\n        string calldata phone,\n        string calldata url,\n        string calldata did,\n        address uPortAddress\n    ) \n        external \n        stopInEmergency \n        returns (Company) \n    {\n        Company newCompany = companyFactory.createCompany(\n            companyName,\n            phone,\n            url,\n            did,\n            uPortAddress\n        );\n        emit KMPCompanyCreated(\n            address(newCompany),\n            newCompany.name(),\n            newCompany.owner()\n        );\n        return newCompany;\n    }\n\n    /** @dev\n            This function lets users to create a token on one of their companies.\n        @param bcCompany address of the company that owns this token.\n        @param name token's name.\n        @param symbol token's 3 chars symbol.\n        @param initialAmount token total supply.\n        @return The instance of the token just created.\n     */\n    function createTokenForCompany(\n        address bcCompany,\n        string calldata name,\n        string calldata symbol,\n        uint256 initialAmount\n    )\n        external\n        stopInEmergency\n        onlyCompanyOwner(findCompanyOwner(bcCompany))\n        returns (Token)\n    {\n        Token newToken = companyFactory.createTokenForCompany(\n            bcCompany,\n            name,\n            symbol,\n            initialAmount\n        );\n        emit KMPTokenCreated(\n            bcCompany,\n            address(newToken),\n            name,\n            symbol,\n            initialAmount\n        );\n        return newToken;\n    }\n\n    /** @dev Retrieves the balance of a user for an specific token on a company.\n        @param company the address of the company.\n        @param token the address of the token.\n        @param user the address of the user that owns this token.\n        @return uint256 with user's token balance. \n     */\n    function getUserTokenBalance(\n        address company,\n        address token,\n        address user\n    )\n        external\n        view\n        onlyCompanyOwner(findCompanyOwner(company))\n        returns (uint256 aBalance)\n    {\n        require(\n            EMPTY_ADDRESS != findCompanyToken(company, token),\n            \"Token not found.\"\n        );\n        bytes memory payload = abi.encodeWithSignature(\n            \"balanceOf(address)\",\n            user\n        );\n        (bool result, bytes memory returnData) = token.staticcall(payload);\n        if (result) {\n            aBalance = abi.decode(returnData, (uint256));\n        }\n        return aBalance;\n    }\n\n    /** @dev This is a util function to expose the functionality of an internal\n            function. Only for development purposes. \n        @notice remove this function before going to MAINNET.  \n        @param company company address to search for owner.\n        @return the owner's address or 0x if not found.\n     */\n    function findCompanyOwnerUtil(address company) external view returns (address) {\n        return findCompanyOwner(company);\n    }\n\n    /** @dev Circuit breaker switch to pause this contract state changes. */\n    function activateEmergency()\n        external\n        ownerOnly(msg.sender)\n        returns (bool)\n    {\n        if (stopped == false) {\n            stopped = true;\n        } else {\n            stopped = false;\n        }\n        return stopped;\n    }\n\n    /** @dev find a token into the tokens array corresponding to that company.\n        @param aCompany address of a company\n        @param aToken address of a token\n        @return true if found, false if not found.\n     */\n    function tokenInCompany(address aCompany, address aToken)\n        public\n        view\n        onlyCompanyOwner(findCompanyOwner(aCompany))\n        returns (bool)\n    {\n        address[MAX_COMPANY_TOKENS] memory companyTokens = companyFactory.tokens[aCompany];\n        for (uint8 i = 0; i < MAX_COMPANY_TOKENS; i++) {\n            if (companyTokens[i] == aToken) {\n                return true; // Token found.\n            }\n        }\n        return false; // Token not found.\n    }\n\n    /** @dev Look for a token inside a company list of tokens.\n        @param aCompany company address to search\n        @param aToken token address to search\n        @return token address if found, 0x if not found. \n     */\n    function findCompanyToken(address aCompany, address aToken)\n        public\n        view\n        returns (address)\n    {\n        if (tokenInCompany(aCompany, aToken)) {\n            return aToken;\n        }\n        return EMPTY_ADDRESS;\n    }\n\n    /** @dev Look for the owner of the company received in the companies array. \n        @param aCompany company address to search for owner.\n        @return the owner's address or 0x if not found.\n     */\n    function findCompanyOwner(address aCompany) private view returns (address) {\n        address[MAX_OWNER_COMPANIES] memory ownerCompanies = companyFactory.companies[msg.sender];\n        for (uint8 i = 0; i < MAX_OWNER_COMPANIES; i++) {\n            if (ownerCompanies[i] == aCompany) {\n                return Company(ownerCompanies[i]).owner();\n            }\n        }\n        return EMPTY_ADDRESS;\n    }\n}\n",
  "sourcePath": "/home/juan/consensys/final/final-project-Juan-cc/kmp/contracts/Platform.sol",
  "compiler": {
    "name": "solc",
    "version": "0.5.0+commit.1d4f565a.Emscripten.clang"
  },
  "schemaVersion": "3.0.0",
  "updatedAt": "2019-01-26T04:19:52.139Z",
  "devdoc": {
    "author": "Juan Castellon",
    "methods": {
      "activateEmergency()": {
        "details": "Circuit breaker switch to pause this contract state changes. "
      },
      "constructor": {
        "details": "Platform contract owner is set on this constructor. "
      },
      "createCompany(string,string,string,string,address)": {
        "details": "This function lets users to create their company on the platform.",
        "params": {
          "companyName": "name we will give to this company.",
          "did": "company uPort id (not used for now).",
          "phone": "company's phone number.",
          "uPortAddress": "company uport Ethr address (not used for now).",
          "url": "company's url."
        },
        "return": "the Company just created."
      },
      "createTokenForCompany(address,string,string,uint256)": {
        "details": "This function lets users to create a token on one of their companies.",
        "params": {
          "bcCompany": "address of the company that owns this token.",
          "initialAmount": "token total supply.",
          "name": "token's name.",
          "symbol": "token's 3 chars symbol."
        },
        "return": "The instance of the token just created."
      },
      "findCompanyOwnerUtil(address)": {
        "details": "This is a util function to expose the functionality of an internal function. Only for development purposes. ",
        "params": {
          "company": "company address to search for owner."
        },
        "return": "the owner's address or 0x if not found."
      },
      "findCompanyToken(address,address)": {
        "details": "Look for a token inside a company list of tokens.",
        "params": {
          "aCompany": "company address to search",
          "aToken": "token address to search"
        },
        "return": "token address if found, 0x if not found. "
      },
      "getUserTokenBalance(address,address,address)": {
        "details": "Retrieves the balance of a user for an specific token on a company.",
        "params": {
          "company": "the address of the company.",
          "token": "the address of the token.",
          "user": "the address of the user that owns this token."
        },
        "return": "uint256 with user's token balance. "
      },
      "tokenInCompany(address,address)": {
        "details": "find a token into the tokens array corresponding to that company.",
        "params": {
          "aCompany": "address of a company",
          "aToken": "address of a token"
        },
        "return": "true if found, false if not found."
      }
    },
    "title": "Platform main contract to expose functionality to users."
  },
  "userdoc": {
    "methods": {
      "findCompanyOwnerUtil(address)": {
        "notice": "remove this function before going to MAINNET.  "
      }
    },
    "notice": " Platform contract will allow  KMP Platform users to create  their own company and create their own tokens. "
  }
}