{
  "contractName": "TokenFactory",
  "abi": [
    {
      "constant": true,
      "inputs": [],
      "name": "MAX_COMPANY_TOKENS",
      "outputs": [
        {
          "name": "",
          "type": "uint8"
        }
      ],
      "payable": false,
      "stateMutability": "view",
      "type": "function",
      "signature": "0x38abeb43"
    },
    {
      "constant": true,
      "inputs": [],
      "name": "MAX_OWNER_COMPANIES",
      "outputs": [
        {
          "name": "",
          "type": "uint8"
        }
      ],
      "payable": false,
      "stateMutability": "view",
      "type": "function",
      "signature": "0x4642e0ba"
    },
    {
      "constant": false,
      "inputs": [
        {
          "name": "self",
          "type": "CompanyFactory.Data storage"
        },
        {
          "name": "_bcCompany",
          "type": "address"
        },
        {
          "name": "_name",
          "type": "string"
        },
        {
          "name": "_symbol",
          "type": "string"
        },
        {
          "name": "_initialAmount",
          "type": "uint256"
        }
      ],
      "name": "createTokenForCompany",
      "outputs": [
        {
          "name": "",
          "type": "Token"
        }
      ],
      "payable": false,
      "stateMutability": "nonpayable",
      "type": "function",
      "signature": "0x5f432927"
    },
    {
      "constant": true,
      "inputs": [
        {
          "name": "self",
          "type": "CompanyFactory.Data storage"
        },
        {
          "name": "aCompany",
          "type": "address"
        }
      ],
      "name": "findCompanyownerUtil",
      "outputs": [
        {
          "name": "",
          "type": "address"
        }
      ],
      "payable": false,
      "stateMutability": "view",
      "type": "function",
      "signature": "0xc73f96ab"
    }
  ],
  "bytecode": "0x6112e2610030600b82828239805160001a6073146000811461002057610022565bfe5b5030600052607381538281f3fe73000000000000000000000000000000000000000030146080604052600436106100785763ffffffff7c010000000000000000000000000000000000000000000000000000000060003504166338abeb43811461007d5780634642e0ba1461009b5780635f432927146100a3578063c73f96ab146101a3575b600080fd5b6100856101cf565b6040805160ff9092168252519081900360200190f35b6100856101d4565b8180156100af57600080fd5b50610187600480360360a08110156100c657600080fd5b813591600160a060020a03602082013516918101906060810160408201356401000000008111156100f657600080fd5b82018360208201111561010857600080fd5b8035906020019184600183028401116401000000008311171561012a57600080fd5b91939092909160208101903564010000000081111561014857600080fd5b82018360208201111561015a57600080fd5b8035906020019184600183028401116401000000008311171561017c57600080fd5b9193509150356101d9565b60408051600160a060020a039092168252519081900360200190f35b610187600480360360408110156101b957600080fd5b5080359060200135600160a060020a0316610316565b600581565b600381565b60006101e5888861032b565b600160a060020a031633146101f957600080fd5b60008733888888888861020a6105bd565b600160a060020a038089168252871660208201526080810182905260a0604082018181529082018690526060820160c08301888880828437600083820152601f01601f1916909101848103835286815260200190508686808284376000838201819052604051601f909201601f19169093018190039c509a509098505050505050505050f0801580156102a1573d6000803e3d6000fd5b50905060006102b08a8a61046a565b600160a060020a038a16600090815260018c0160205260409020909150829060ff8316600581106102dd57fe5b01805473ffffffffffffffffffffffffffffffffffffffff1916600160a060020a03929092169190911790555098975050505050505050565b6000610322838361032b565b90505b92915050565b60006103356105cd565b3360009081526020859052604090819020815160608101928390529160039082845b8154600160a060020a031681526001909101906020018083116103575750939450600093505050505b600360ff8216101561045f57600160a060020a0384168260ff8316600381106103a557fe5b6020020151600160a060020a03161415610457578160ff8216600381106103c857fe5b6020020151600160a060020a0316638da5cb5b6040518163ffffffff167c010000000000000000000000000000000000000000000000000000000002815260040160206040518083038186803b15801561042157600080fd5b505afa158015610435573d6000803e3d6000fd5b505050506040513d602081101561044b57600080fd5b50519250610325915050565b600101610380565b506000949350505050565b6000610476838361032b565b600160a060020a0316331461051257604080517f08c379a000000000000000000000000000000000000000000000000000000000815260206004820152602960248201527f4f6e6c7920636f6d70616e79206f776e65722063616e2073656172636820666f60448201527f7220746f6b656e732e0000000000000000000000000000000000000000000000606482015290519081900360840190fd5b61051a6105ec565b600160a060020a038316600090815260018501602052604090819020815160a08101928390529160059082845b8154600160a060020a031681526001909101906020018083116105475750939450600093505050505b600560ff821610156105b25760008260ff83166005811061058d57fe5b6020020151600160a060020a031614156105aa5791506103259050565b600101610570565b506005949350505050565b604051610cab8061060c83390190565b6060604051908101604052806003906020820280388339509192915050565b60a060405190810160405280600590602082028038833950919291505056fe60806040523480156200001157600080fd5b5060405162000cab38038062000cab833981018060405260a08110156200003757600080fd5b81516020830151604084018051929491938201926401000000008111156200005e57600080fd5b820160208101848111156200007257600080fd5b81516401000000008111828201871017156200008d57600080fd5b50509291906020018051640100000000811115620000aa57600080fd5b82016020810184811115620000be57600080fd5b8151640100000000811182820187101715620000d957600080fd5b505060209182015160008054600160a060020a0319163317815586519295509093508592859262000111916004919086019062000280565b5081516200012790600590602085019062000280565b506006805460008054600160a060020a03808c16600160a060020a031992831617909255336101000261010060a860020a031960ff90961660ff1990941693909317949094169190911790915560078054918a1691909216179055506200019a90508482640100000000620001a5810204565b505050505062000325565b600160a060020a0382161515620001bb57600080fd5b600354620001d89082640100000000620009316200026682021704565b600355600160a060020a0382166000908152600160205260409020546200020e9082640100000000620009316200026682021704565b600160a060020a03831660008181526001602090815260408083209490945583518581529351929391927fddf252ad1be2c89b69c2b068fc378daa952ba7f163c4a11628f55a4df523b3ef9281900390910190a35050565b6000828201838110156200027957600080fd5b9392505050565b828054600181600116156101000203166002900490600052602060002090601f016020900481019282601f10620002c357805160ff1916838001178555620002f3565b82800160010185558215620002f3579182015b82811115620002f3578251825591602001919060010190620002d6565b506200030192915062000305565b5090565b6200032291905b808211156200030157600081556001016200030c565b90565b61097680620003356000396000f3fe6080604052600436106100c45763ffffffff7c010000000000000000000000000000000000000000000000000000000060003504166306fdde0381146100c9578063095ea7b31461015357806318160ddd146101a057806323b872dd146101c7578063313ce5671461020a578063395093511461023557806340cb34621461026e57806370a08231146102a35780638da5cb5b146102d657806395d89b4114610307578063a457c2d71461031c578063a9059cbb14610355578063dd62ed3e1461038e575b600080fd5b3480156100d557600080fd5b506100de6103c9565b6040805160208082528351818301528351919283929083019185019080838360005b83811015610118578181015183820152602001610100565b50505050905090810190601f1680156101455780820380516001836020036101000a031916815260200191505b509250505060405180910390f35b34801561015f57600080fd5b5061018c6004803603604081101561017657600080fd5b50600160a060020a03813516906020013561045f565b604080519115158252519081900360200190f35b3480156101ac57600080fd5b506101b56104dd565b60408051918252519081900360200190f35b3480156101d357600080fd5b5061018c600480360360608110156101ea57600080fd5b50600160a060020a038135811691602081013590911690604001356104e3565b34801561021657600080fd5b5061021f6105ac565b6040805160ff9092168252519081900360200190f35b34801561024157600080fd5b5061018c6004803603604081101561025857600080fd5b50600160a060020a0381351690602001356105b5565b34801561027a57600080fd5b506102a16004803603602081101561029157600080fd5b5035600160a060020a0316610665565b005b3480156102af57600080fd5b506101b5600480360360208110156102c657600080fd5b5035600160a060020a0316610736565b3480156102e257600080fd5b506102eb610751565b60408051600160a060020a039092168252519081900360200190f35b34801561031357600080fd5b506100de610760565b34801561032857600080fd5b5061018c6004803603604081101561033f57600080fd5b50600160a060020a0381351690602001356107c1565b34801561036157600080fd5b5061018c6004803603604081101561037857600080fd5b50600160a060020a03813516906020013561080c565b34801561039a57600080fd5b506101b5600480360360408110156103b157600080fd5b50600160a060020a0381358116916020013516610822565b60048054604080516020601f60026000196101006001881615020190951694909404938401819004810282018101909252828152606093909290918301828280156104555780601f1061042a57610100808354040283529160200191610455565b820191906000526020600020905b81548152906001019060200180831161043857829003601f168201915b5050505050905090565b6000600160a060020a038316151561047657600080fd5b336000818152600260209081526040808320600160a060020a03881680855290835292819020869055805186815290519293927f8c5be1e5ebec7d5bd14f71427d1e84f3dd0314c0f7b2291e5b200ac8c7c3b925929181900390910190a350600192915050565b60035490565b600160a060020a0383166000908152600260209081526040808320338452909152812054610517908363ffffffff61084d16565b600160a060020a0385166000908152600260209081526040808320338452909152902055610546848484610862565b600160a060020a0384166000818152600260209081526040808320338085529083529281902054815190815290519293927f8c5be1e5ebec7d5bd14f71427d1e84f3dd0314c0f7b2291e5b200ac8c7c3b925929181900390910190a35060019392505050565b60065460ff1690565b6000600160a060020a03831615156105cc57600080fd5b336000908152600260209081526040808320600160a060020a0387168452909152902054610600908363ffffffff61093116565b336000818152600260209081526040808320600160a060020a0389168085529083529281902085905580519485525191937f8c5be1e5ebec7d5bd14f71427d1e84f3dd0314c0f7b2291e5b200ac8c7c3b925929081900390910190a350600192915050565b6000543390600160a060020a0316811461070657604080517f08c379a000000000000000000000000000000000000000000000000000000000815260206004820152602260248201527f4163636573732064656e6965642e20436f6d70616e79206f776e6572206f6e6c60448201527f792e000000000000000000000000000000000000000000000000000000000000606482015290519081900360840190fd5b506000805473ffffffffffffffffffffffffffffffffffffffff1916600160a060020a0392909216919091179055565b600160a060020a031660009081526001602052604090205490565b600054600160a060020a031681565b60058054604080516020601f60026000196101006001881615020190951694909404938401819004810282018101909252828152606093909290918301828280156104555780601f1061042a57610100808354040283529160200191610455565b6000600160a060020a03831615156107d857600080fd5b336000908152600260209081526040808320600160a060020a0387168452909152902054610600908363ffffffff61084d16565b6000610819338484610862565b50600192915050565b600160a060020a03918216600090815260026020908152604080832093909416825291909152205490565b60008282111561085c57600080fd5b50900390565b600160a060020a038216151561087757600080fd5b600160a060020a0383166000908152600160205260409020546108a0908263ffffffff61084d16565b600160a060020a0380851660009081526001602052604080822093909355908416815220546108d5908263ffffffff61093116565b600160a060020a0380841660008181526001602090815260409182902094909455805185815290519193928716927fddf252ad1be2c89b69c2b068fc378daa952ba7f163c4a11628f55a4df523b3ef92918290030190a3505050565b60008282018381101561094357600080fd5b939250505056fea165627a7a72305820a4309cd675230927dc2d4b0e9b71678f834188d356924864f34d89180b00e7860029a165627a7a72305820c3112d647e1ee5265eb2a6a8f8344cc7b078358c30d3073bb4259c376eae1bff0029",
  "source": "pragma solidity ^0.5.0;\n\nimport \"./Company.sol\";\nimport \"./Token.sol\";\nimport \"./CompanyFactory.sol\";\n\nlibrary TokenFactory {\n    // Constants\n    uint8 public constant MAX_OWNER_COMPANIES = 3; // 1 owner could register up to 3 companies.\n    uint8 public constant MAX_COMPANY_TOKENS = 5; // 1 company could register up to 10 tokens.\n    address internal constant EMPTY_ADDRESS = address(0);\n\n\n    function createTokenForCompany(\n        CompanyFactory.Data storage self,\n        address _bcCompany,\n        string calldata _name,\n        string calldata _symbol,\n        uint256 _initialAmount\n    ) external returns (Token) {\n        require(msg.sender == findCompanyOwner(self, _bcCompany)); // 2nd time checking correct ownership.\n        Token newToken = new Token(\n            _bcCompany,\n            msg.sender,\n            _name,\n            _symbol,\n            _initialAmount\n        );\n        uint8 nextPosition = nextTokenAvailablePosition(\n            self,\n            address(_bcCompany)\n        );\n        self.tokens[_bcCompany][nextPosition] = address(newToken);\n        return newToken;\n    }\n\n    function nextTokenAvailablePosition(\n        CompanyFactory.Data storage self,\n        address aCompany\n    ) internal view returns (uint8) {\n        require(\n            msg.sender == findCompanyOwner(self, aCompany),\n            \"Only company owner can search for tokens.\"\n        );\n        address[MAX_COMPANY_TOKENS] memory companyTokens = self.tokens[aCompany];\n        for (uint8 i = 0; i < MAX_COMPANY_TOKENS; i++) {\n            if (companyTokens[i] == EMPTY_ADDRESS) {\n                return i; // first position available.\n            }\n        }\n        return MAX_COMPANY_TOKENS; // No empty spot available.\n    }\n\n    function findCompanyownerUtil(\n        CompanyFactory.Data storage self,\n        address aCompany\n    ) external view returns (address) {\n        return findCompanyOwner(self, aCompany);\n    }\n\n    function findCompanyOwner(CompanyFactory.Data storage self, address aCompany)\n        internal\n        view\n        returns (address)\n    {\n        address[MAX_OWNER_COMPANIES] memory ownerCompanies = self.companies[msg.sender];\n        for (uint8 i = 0; i < MAX_OWNER_COMPANIES; i++) {\n            if (ownerCompanies[i] == aCompany) {\n                return Company(ownerCompanies[i]).owner();\n            }\n        }\n        return EMPTY_ADDRESS;\n    }\n\n}\n",
  "sourcePath": "/home/juan/consensys/final/final-project-Juan-cc/kmp/contracts/TokenFactory.sol",
  "compiler": {
    "name": "solc",
    "version": "0.5.0+commit.1d4f565a.Emscripten.clang"
  },
  "schemaVersion": "3.0.0",
  "updatedAt": "2019-01-26T02:06:45.125Z",
  "devdoc": {
    "methods": {}
  },
  "userdoc": {
    "methods": {}
  }
}