{
  "contractName": "Token",
  "abi": [
    {
      "constant": true,
      "inputs": [],
      "name": "name",
      "outputs": [
        {
          "name": "",
          "type": "string"
        }
      ],
      "payable": false,
      "stateMutability": "view",
      "type": "function",
      "signature": "0x06fdde03"
    },
    {
      "constant": false,
      "inputs": [
        {
          "name": "spender",
          "type": "address"
        },
        {
          "name": "value",
          "type": "uint256"
        }
      ],
      "name": "approve",
      "outputs": [
        {
          "name": "",
          "type": "bool"
        }
      ],
      "payable": false,
      "stateMutability": "nonpayable",
      "type": "function",
      "signature": "0x095ea7b3"
    },
    {
      "constant": true,
      "inputs": [],
      "name": "totalSupply",
      "outputs": [
        {
          "name": "",
          "type": "uint256"
        }
      ],
      "payable": false,
      "stateMutability": "view",
      "type": "function",
      "signature": "0x18160ddd"
    },
    {
      "constant": false,
      "inputs": [
        {
          "name": "from",
          "type": "address"
        },
        {
          "name": "to",
          "type": "address"
        },
        {
          "name": "value",
          "type": "uint256"
        }
      ],
      "name": "transferFrom",
      "outputs": [
        {
          "name": "",
          "type": "bool"
        }
      ],
      "payable": false,
      "stateMutability": "nonpayable",
      "type": "function",
      "signature": "0x23b872dd"
    },
    {
      "constant": true,
      "inputs": [],
      "name": "decimals",
      "outputs": [
        {
          "name": "",
          "type": "uint8"
        }
      ],
      "payable": false,
      "stateMutability": "view",
      "type": "function",
      "signature": "0x313ce567"
    },
    {
      "constant": false,
      "inputs": [
        {
          "name": "spender",
          "type": "address"
        },
        {
          "name": "addedValue",
          "type": "uint256"
        }
      ],
      "name": "increaseAllowance",
      "outputs": [
        {
          "name": "",
          "type": "bool"
        }
      ],
      "payable": false,
      "stateMutability": "nonpayable",
      "type": "function",
      "signature": "0x39509351"
    },
    {
      "constant": false,
      "inputs": [
        {
          "name": "anOwner",
          "type": "address"
        }
      ],
      "name": "modifyOwner",
      "outputs": [],
      "payable": false,
      "stateMutability": "nonpayable",
      "type": "function",
      "signature": "0x40cb3462"
    },
    {
      "constant": true,
      "inputs": [
        {
          "name": "owner",
          "type": "address"
        }
      ],
      "name": "balanceOf",
      "outputs": [
        {
          "name": "",
          "type": "uint256"
        }
      ],
      "payable": false,
      "stateMutability": "view",
      "type": "function",
      "signature": "0x70a08231"
    },
    {
      "constant": true,
      "inputs": [],
      "name": "owner",
      "outputs": [
        {
          "name": "",
          "type": "address"
        }
      ],
      "payable": false,
      "stateMutability": "view",
      "type": "function",
      "signature": "0x8da5cb5b"
    },
    {
      "constant": true,
      "inputs": [],
      "name": "symbol",
      "outputs": [
        {
          "name": "",
          "type": "string"
        }
      ],
      "payable": false,
      "stateMutability": "view",
      "type": "function",
      "signature": "0x95d89b41"
    },
    {
      "constant": false,
      "inputs": [
        {
          "name": "spender",
          "type": "address"
        },
        {
          "name": "subtractedValue",
          "type": "uint256"
        }
      ],
      "name": "decreaseAllowance",
      "outputs": [
        {
          "name": "",
          "type": "bool"
        }
      ],
      "payable": false,
      "stateMutability": "nonpayable",
      "type": "function",
      "signature": "0xa457c2d7"
    },
    {
      "constant": false,
      "inputs": [
        {
          "name": "to",
          "type": "address"
        },
        {
          "name": "value",
          "type": "uint256"
        }
      ],
      "name": "transfer",
      "outputs": [
        {
          "name": "",
          "type": "bool"
        }
      ],
      "payable": false,
      "stateMutability": "nonpayable",
      "type": "function",
      "signature": "0xa9059cbb"
    },
    {
      "constant": true,
      "inputs": [
        {
          "name": "owner",
          "type": "address"
        },
        {
          "name": "spender",
          "type": "address"
        }
      ],
      "name": "allowance",
      "outputs": [
        {
          "name": "",
          "type": "uint256"
        }
      ],
      "payable": false,
      "stateMutability": "view",
      "type": "function",
      "signature": "0xdd62ed3e"
    },
    {
      "inputs": [
        {
          "name": "aCompany",
          "type": "address"
        },
        {
          "name": "anOwner",
          "type": "address"
        },
        {
          "name": "tokenName",
          "type": "string"
        },
        {
          "name": "tokenSymbol",
          "type": "string"
        },
        {
          "name": "initialSupply",
          "type": "uint256"
        }
      ],
      "payable": false,
      "stateMutability": "nonpayable",
      "type": "constructor",
      "signature": "constructor"
    },
    {
      "anonymous": false,
      "inputs": [
        {
          "indexed": true,
          "name": "from",
          "type": "address"
        },
        {
          "indexed": true,
          "name": "to",
          "type": "address"
        },
        {
          "indexed": false,
          "name": "value",
          "type": "uint256"
        }
      ],
      "name": "Transfer",
      "type": "event",
      "signature": "0xddf252ad1be2c89b69c2b068fc378daa952ba7f163c4a11628f55a4df523b3ef"
    },
    {
      "anonymous": false,
      "inputs": [
        {
          "indexed": true,
          "name": "owner",
          "type": "address"
        },
        {
          "indexed": true,
          "name": "spender",
          "type": "address"
        },
        {
          "indexed": false,
          "name": "value",
          "type": "uint256"
        }
      ],
      "name": "Approval",
      "type": "event",
      "signature": "0x8c5be1e5ebec7d5bd14f71427d1e84f3dd0314c0f7b2291e5b200ac8c7c3b925"
    }
  ],
  "bytecode": "0x60806040523480156200001157600080fd5b5060405162000cab38038062000cab833981018060405260a08110156200003757600080fd5b81516020830151604084018051929491938201926401000000008111156200005e57600080fd5b820160208101848111156200007257600080fd5b81516401000000008111828201871017156200008d57600080fd5b50509291906020018051640100000000811115620000aa57600080fd5b82016020810184811115620000be57600080fd5b8151640100000000811182820187101715620000d957600080fd5b505060209182015160008054600160a060020a0319163317815586519295509093508592859262000111916004919086019062000280565b5081516200012790600590602085019062000280565b506006805460008054600160a060020a03808c16600160a060020a031992831617909255336101000261010060a860020a031960ff90961660ff1990941693909317949094169190911790915560078054918a1691909216179055506200019a90508482640100000000620001a5810204565b505050505062000325565b600160a060020a0382161515620001bb57600080fd5b600354620001d89082640100000000620009316200026682021704565b600355600160a060020a0382166000908152600160205260409020546200020e9082640100000000620009316200026682021704565b600160a060020a03831660008181526001602090815260408083209490945583518581529351929391927fddf252ad1be2c89b69c2b068fc378daa952ba7f163c4a11628f55a4df523b3ef9281900390910190a35050565b6000828201838110156200027957600080fd5b9392505050565b828054600181600116156101000203166002900490600052602060002090601f016020900481019282601f10620002c357805160ff1916838001178555620002f3565b82800160010185558215620002f3579182015b82811115620002f3578251825591602001919060010190620002d6565b506200030192915062000305565b5090565b6200032291905b808211156200030157600081556001016200030c565b90565b61097680620003356000396000f3fe6080604052600436106100c45763ffffffff7c010000000000000000000000000000000000000000000000000000000060003504166306fdde0381146100c9578063095ea7b31461015357806318160ddd146101a057806323b872dd146101c7578063313ce5671461020a578063395093511461023557806340cb34621461026e57806370a08231146102a35780638da5cb5b146102d657806395d89b4114610307578063a457c2d71461031c578063a9059cbb14610355578063dd62ed3e1461038e575b600080fd5b3480156100d557600080fd5b506100de6103c9565b6040805160208082528351818301528351919283929083019185019080838360005b83811015610118578181015183820152602001610100565b50505050905090810190601f1680156101455780820380516001836020036101000a031916815260200191505b509250505060405180910390f35b34801561015f57600080fd5b5061018c6004803603604081101561017657600080fd5b50600160a060020a03813516906020013561045f565b604080519115158252519081900360200190f35b3480156101ac57600080fd5b506101b56104dd565b60408051918252519081900360200190f35b3480156101d357600080fd5b5061018c600480360360608110156101ea57600080fd5b50600160a060020a038135811691602081013590911690604001356104e3565b34801561021657600080fd5b5061021f6105ac565b6040805160ff9092168252519081900360200190f35b34801561024157600080fd5b5061018c6004803603604081101561025857600080fd5b50600160a060020a0381351690602001356105b5565b34801561027a57600080fd5b506102a16004803603602081101561029157600080fd5b5035600160a060020a0316610665565b005b3480156102af57600080fd5b506101b5600480360360208110156102c657600080fd5b5035600160a060020a0316610736565b3480156102e257600080fd5b506102eb610751565b60408051600160a060020a039092168252519081900360200190f35b34801561031357600080fd5b506100de610760565b34801561032857600080fd5b5061018c6004803603604081101561033f57600080fd5b50600160a060020a0381351690602001356107c1565b34801561036157600080fd5b5061018c6004803603604081101561037857600080fd5b50600160a060020a03813516906020013561080c565b34801561039a57600080fd5b506101b5600480360360408110156103b157600080fd5b50600160a060020a0381358116916020013516610822565b60048054604080516020601f60026000196101006001881615020190951694909404938401819004810282018101909252828152606093909290918301828280156104555780601f1061042a57610100808354040283529160200191610455565b820191906000526020600020905b81548152906001019060200180831161043857829003601f168201915b5050505050905090565b6000600160a060020a038316151561047657600080fd5b336000818152600260209081526040808320600160a060020a03881680855290835292819020869055805186815290519293927f8c5be1e5ebec7d5bd14f71427d1e84f3dd0314c0f7b2291e5b200ac8c7c3b925929181900390910190a350600192915050565b60035490565b600160a060020a0383166000908152600260209081526040808320338452909152812054610517908363ffffffff61084d16565b600160a060020a0385166000908152600260209081526040808320338452909152902055610546848484610862565b600160a060020a0384166000818152600260209081526040808320338085529083529281902054815190815290519293927f8c5be1e5ebec7d5bd14f71427d1e84f3dd0314c0f7b2291e5b200ac8c7c3b925929181900390910190a35060019392505050565b60065460ff1690565b6000600160a060020a03831615156105cc57600080fd5b336000908152600260209081526040808320600160a060020a0387168452909152902054610600908363ffffffff61093116565b336000818152600260209081526040808320600160a060020a0389168085529083529281902085905580519485525191937f8c5be1e5ebec7d5bd14f71427d1e84f3dd0314c0f7b2291e5b200ac8c7c3b925929081900390910190a350600192915050565b6000543390600160a060020a0316811461070657604080517f08c379a000000000000000000000000000000000000000000000000000000000815260206004820152602260248201527f4163636573732064656e6965642e20436f6d70616e79206f776e6572206f6e6c60448201527f792e000000000000000000000000000000000000000000000000000000000000606482015290519081900360840190fd5b506000805473ffffffffffffffffffffffffffffffffffffffff1916600160a060020a0392909216919091179055565b600160a060020a031660009081526001602052604090205490565b600054600160a060020a031681565b60058054604080516020601f60026000196101006001881615020190951694909404938401819004810282018101909252828152606093909290918301828280156104555780601f1061042a57610100808354040283529160200191610455565b6000600160a060020a03831615156107d857600080fd5b336000908152600260209081526040808320600160a060020a0387168452909152902054610600908363ffffffff61084d16565b6000610819338484610862565b50600192915050565b600160a060020a03918216600090815260026020908152604080832093909416825291909152205490565b60008282111561085c57600080fd5b50900390565b600160a060020a038216151561087757600080fd5b600160a060020a0383166000908152600160205260409020546108a0908263ffffffff61084d16565b600160a060020a0380851660009081526001602052604080822093909355908416815220546108d5908263ffffffff61093116565b600160a060020a0380841660008181526001602090815260409182902094909455805185815290519193928716927fddf252ad1be2c89b69c2b068fc378daa952ba7f163c4a11628f55a4df523b3ef92918290030190a3505050565b60008282018381101561094357600080fd5b939250505056fea165627a7a72305820a31aa05fc265c22730a2f44ed74f77c57e9f17e8c5875cc103e31473e6b877930029",
  "source": "pragma solidity ^0.5.0;\n\nimport \"../client/node_modules/openzeppelin-solidity/contracts/token/ERC20/ERC20.sol\";\nimport \"../client/node_modules/openzeppelin-solidity/contracts/token/ERC20/ERC20Detailed.sol\";\nimport \"./Owned.sol\";\n\n/** @author Juan Castellon\n    @title Token contract to be used in the Platform.\n    @dev Token is a contract that extends OpenZeppelin audited token contracts\n        and also has any Platform specific data. \n */\ncontract Token is Owned, ERC20, ERC20Detailed {\n    /** Constants */\n    uint8 private constant NO_DECIMALS = 0;\n\n    /** State variables */\n    address private tokenFactory;\n    address private company;\n\n    /** Constructors */\n    /** @dev Default constructor to create a token on the Platform. It uses \n            ERC20Detailed, ERC20 and Owned constructors to set state variables. \n        @param aCompany address of the company that requests this token creation.\n        @param anOwner address of the owner.\n        @param tokenName string with the name of the token.\n        @param tokenSymbol string with a 3 chars (aprox) token symbol.\n        @param initialSupply uint256 with initial total supply for this token.\n    */\n    constructor(\n        address aCompany,\n        address anOwner,\n        string memory tokenName,\n        string memory tokenSymbol,\n        uint256 initialSupply\n    ) \n        public \n        ERC20Detailed(tokenName, tokenSymbol, NO_DECIMALS)\n        ERC20()\n        Owned()\n    {\n        owner = anOwner; // TODO: refactor create from factory, but then transfer ownership\n        tokenFactory = msg.sender;\n        company = aCompany;\n        _mint(anOwner, initialSupply); // assigning all tokens to owner initially.\n    }\n\n}\n",
  "sourcePath": "/home/juan/consensys/final/final-project-Juan-cc/kmp/contracts/Token.sol",
  "compiler": {
    "name": "solc",
    "version": "0.5.0+commit.1d4f565a.Emscripten.clang"
  },
  "schemaVersion": "3.0.0",
  "updatedAt": "2019-01-27T18:02:59.773Z",
  "devdoc": {
    "author": "Juan Castellon",
    "details": "Token is a contract that extends OpenZeppelin audited token contracts and also has any Platform specific data. ",
    "methods": {
      "allowance(address,address)": {
        "details": "Function to check the amount of tokens that an owner allowed to a spender.",
        "params": {
          "owner": "address The address which owns the funds.",
          "spender": "address The address which will spend the funds."
        },
        "return": "A uint256 specifying the amount of tokens still available for the spender."
      },
      "approve(address,uint256)": {
        "details": "Approve the passed address to spend the specified amount of tokens on behalf of msg.sender. Beware that changing an allowance with this method brings the risk that someone may use both the old and the new allowance by unfortunate transaction ordering. One possible solution to mitigate this race condition is to first reduce the spender's allowance to 0 and set the desired value afterwards: https://github.com/ethereum/EIPs/issues/20#issuecomment-263524729",
        "params": {
          "spender": "The address which will spend the funds.",
          "value": "The amount of tokens to be spent."
        }
      },
      "balanceOf(address)": {
        "details": "Gets the balance of the specified address.",
        "params": {
          "owner": "The address to query the balance of."
        },
        "return": "An uint256 representing the amount owned by the passed address."
      },
      "constructor": {
        "details": "Default constructor to create a token on the Platform. It uses  ERC20Detailed, ERC20 and Owned constructors to set state variables. ",
        "params": {
          "aCompany": "address of the company that requests this token creation.",
          "anOwner": "address of the owner.",
          "initialSupply": "uint256 with initial total supply for this token.",
          "tokenName": "string with the name of the token.",
          "tokenSymbol": "string with a 3 chars (aprox) token symbol."
        }
      },
      "decimals()": {
        "return": "the number of decimals of the token."
      },
      "decreaseAllowance(address,uint256)": {
        "details": "Decrease the amount of tokens that an owner allowed to a spender. approve should be called when allowed_[_spender] == 0. To decrement allowed value is better to use this function to avoid 2 calls (and wait until the first transaction is mined) From MonolithDAO Token.sol Emits an Approval event.",
        "params": {
          "spender": "The address which will spend the funds.",
          "subtractedValue": "The amount of tokens to decrease the allowance by."
        }
      },
      "increaseAllowance(address,uint256)": {
        "details": "Increase the amount of tokens that an owner allowed to a spender. approve should be called when allowed_[_spender] == 0. To increment allowed value is better to use this function to avoid 2 calls (and wait until the first transaction is mined) From MonolithDAO Token.sol Emits an Approval event.",
        "params": {
          "addedValue": "The amount of tokens to increase the allowance by.",
          "spender": "The address which will spend the funds."
        }
      },
      "modifyOwner(address)": {
        "details": "This function will allow the owner of the contract to transfer  ownership to a new owner.",
        "params": {
          "anOwner": "new owner's address."
        }
      },
      "name()": {
        "return": "the name of the token."
      },
      "symbol()": {
        "return": "the symbol of the token."
      },
      "totalSupply()": {
        "details": "Total number of tokens in existence"
      },
      "transfer(address,uint256)": {
        "details": "Transfer token for a specified address",
        "params": {
          "to": "The address to transfer to.",
          "value": "The amount to be transferred."
        }
      },
      "transferFrom(address,address,uint256)": {
        "details": "Transfer tokens from one address to another. Note that while this function emits an Approval event, this is not required as per the specification, and other compliant implementations may not emit the event.",
        "params": {
          "from": "address The address which you want to send tokens from",
          "to": "address The address which you want to transfer to",
          "value": "uint256 the amount of tokens to be transferred"
        }
      }
    },
    "title": "Token contract to be used in the Platform."
  },
  "userdoc": {
    "methods": {}
  }
}