{
  "contractName": "TokenUtil",
  "abi": [
    {
      "constant": true,
      "inputs": [],
      "name": "MAX_COMPANY_TOKENS",
      "outputs": [
        {
          "name": "",
          "type": "uint8"
        }
      ],
      "payable": false,
      "stateMutability": "view",
      "type": "function",
      "signature": "0x38abeb43"
    },
    {
      "constant": true,
      "inputs": [],
      "name": "MAX_OWNER_COMPANIES",
      "outputs": [
        {
          "name": "",
          "type": "uint8"
        }
      ],
      "payable": false,
      "stateMutability": "view",
      "type": "function",
      "signature": "0x4642e0ba"
    },
    {
      "constant": true,
      "inputs": [],
      "name": "EMPTY_ADDRESS",
      "outputs": [
        {
          "name": "",
          "type": "address"
        }
      ],
      "payable": false,
      "stateMutability": "view",
      "type": "function",
      "signature": "0xeb39c3af"
    },
    {
      "constant": true,
      "inputs": [
        {
          "name": "self",
          "type": "CompanyFactory.Data storage"
        },
        {
          "name": "aCompany",
          "type": "address"
        },
        {
          "name": "aToken",
          "type": "address"
        }
      ],
      "name": "tokenInCompany",
      "outputs": [
        {
          "name": "",
          "type": "bool"
        }
      ],
      "payable": false,
      "stateMutability": "view",
      "type": "function",
      "signature": "0x5779ae72"
    },
    {
      "constant": true,
      "inputs": [
        {
          "name": "self",
          "type": "CompanyFactory.Data storage"
        },
        {
          "name": "aCompany",
          "type": "address"
        },
        {
          "name": "aToken",
          "type": "address"
        }
      ],
      "name": "findCompanyToken",
      "outputs": [
        {
          "name": "",
          "type": "address"
        }
      ],
      "payable": false,
      "stateMutability": "view",
      "type": "function",
      "signature": "0x3eb17e0d"
    }
  ],
  "bytecode": "0x6103d5610030600b82828239805160001a6073146000811461002057610022565bfe5b5030600052607381538281f3fe73000000000000000000000000000000000000000030146080604052600436106100835763ffffffff7c010000000000000000000000000000000000000000000000000000000060003504166338abeb4381146100885780633eb17e0d146100a65780634642e0ba146100f65780635779ae72146100fe578063eb39c3af14610146575b600080fd5b61009061014e565b6040805160ff9092168252519081900360200190f35b6100da600480360360608110156100bc57600080fd5b50803590600160a060020a0360208201358116916040013516610153565b60408051600160a060020a039092168252519081900360200190f35b610090610177565b6101326004803603606081101561011457600080fd5b50803590600160a060020a036020820135811691604001351661017c565b604080519115158252519081900360200190f35b6100da610385565b600581565b600061016084848461017c565b1561016c575080610170565b5060005b9392505050565b600381565b600073__CompanyUtil___________________________63f5612fc385856040518363ffffffff167c01000000000000000000000000000000000000000000000000000000000281526004018083815260200182600160a060020a0316600160a060020a031681526020019250505060206040518083038186803b15801561020357600080fd5b505af4158015610217573d6000803e3d6000fd5b505050506040513d602081101561022d57600080fd5b505133600160a060020a038216146102cc57604080517f08c379a000000000000000000000000000000000000000000000000000000000815260206004820152602c60248201527f4f6e6c7920636f6d70616e79206f776e65722063616e2065786563757465207460448201527f6869732066756e6374696f6e0000000000000000000000000000000000000000606482015290519081900360840190fd5b6102d461038a565b600160a060020a038516600090815260018701602052604090819020815160a08101928390529160059082845b8154600160a060020a031681526001909101906020018083116103015750939450600093505050505b600560ff8216101561037657600160a060020a0385168260ff83166005811061034f57fe5b6020020151600160a060020a0316141561036e5760019350505061037d565b60010161032a565b5060009250505b509392505050565b600081565b60a060405190810160405280600590602082028038833950919291505056fea165627a7a723058207593ebd86730a6c318ccd75e18cccb2e247342013f53dc98ac7c3c6393542b480029",
  "source": "pragma solidity ^0.5.0;\n\nimport \"./Token.sol\";\nimport \"./CompanyFactory.sol\";\nimport \"./CompanyUtil.sol\";\n\n/** @author Juan Castellon\n    @title Library to create companies on the platform\n    @dev CompanyFactory is a factory pattern implemented via a Library, that \n        will be used to create new companies. It will basically conglomerate all\n        the logic related to companies creation and it's business rules. \n        At the moment creates instances for every request without any \n        validation, but the plan is to add all business rules here to create \n        companies. \n */\nlibrary TokenUtil {\n    /** Constants */\n    uint8 public constant MAX_OWNER_COMPANIES = 3; // 1 owner could register up to 3 companies.\n    uint8 public constant MAX_COMPANY_TOKENS = 5; // 1 company could register up to 5 tokens.\n    address public constant EMPTY_ADDRESS = address(0);\n\n    /** @dev Verify caller is company owner */\n    modifier onlyCompanyOwner(address companyOwner) {\n        require(\n            msg.sender == companyOwner,\n            \"Only company owner can execute this function\"\n        );\n        _;\n    }\n\n    /** @dev First it validates that only the company owner is who is calling\n        this function. If it is the owner then it looks for the next \n        available position in the tokens array for this specific company and\n        returns that position.\n    @param self This function will receive the object (where the data is \n            stored) they are called on as their first parameter.\n    @param aCompany company address to search for available positions in \n            the tokens array.\n    @return next available position in the tokens array or MAX_COMPANY_TOKENS\n            if no position available.\n     */\n    function nextTokenAvailablePosition(\n        CompanyFactory.Data storage self,\n        address aCompany\n    ) \n        internal \n        view \n        onlyCompanyOwner(CompanyUtil.findCompanyOwner(self, aCompany))\n        returns (uint8) \n    {\n        address[MAX_COMPANY_TOKENS] memory companyTokens = self.tokens[aCompany];\n        for (uint8 i = 0; i < MAX_COMPANY_TOKENS; i++) {\n            if (companyTokens[i] == EMPTY_ADDRESS) {\n                return i; // first position available.\n            }\n        }\n        return MAX_COMPANY_TOKENS; // No empty spot available.\n    }\n\n\n    /** @dev find a token into the tokens array corresponding to that company.\n        @param aCompany address of a company\n        @param aToken address of a token\n        @return true if found, false if not found.\n     */\n    function tokenInCompany(CompanyFactory.Data storage self, address aCompany, address aToken)\n        public\n        view\n        onlyCompanyOwner(CompanyUtil.findCompanyOwner(self, aCompany))\n        returns (bool)\n    {\n        address[MAX_COMPANY_TOKENS] memory companyTokens = self.tokens[aCompany];\n        for (uint8 i = 0; i < MAX_COMPANY_TOKENS; i++) {\n            if (companyTokens[i] == aToken) {\n                return true; // Token found.\n            }\n        }\n        return false; // Token not found.\n    }\n\n    /** @dev Look for a token inside a company list of tokens.\n        @param aCompany company address to search\n        @param aToken token address to search\n        @return token address if found, 0x if not found. \n     */\n    function findCompanyToken(CompanyFactory.Data storage self, address aCompany, address aToken)\n        public\n        view\n        returns (address)\n    {\n        if (tokenInCompany(self, aCompany, aToken)) {\n            return aToken;\n        }\n        return EMPTY_ADDRESS;\n    }\n\n\n}\n",
  "sourcePath": "/home/juan/consensys/final/final-project-Juan-cc/kmp/contracts/TokenUtil.sol",
  "compiler": {
    "name": "solc",
    "version": "0.5.0+commit.1d4f565a.Emscripten.clang"
  },
  "schemaVersion": "3.0.0",
  "updatedAt": "2019-01-26T21:19:16.710Z",
  "devdoc": {
    "author": "Juan Castellon",
    "details": "CompanyFactory is a factory pattern implemented via a Library, that  will be used to create new companies. It will basically conglomerate all the logic related to companies creation and it's business rules.  At the moment creates instances for every request without any  validation, but the plan is to add all business rules here to create  companies. ",
    "methods": {
      "findCompanyToken(CompanyFactory.Data storage,address,address)": {
        "details": "Look for a token inside a company list of tokens.",
        "params": {
          "aCompany": "company address to search",
          "aToken": "token address to search"
        },
        "return": "token address if found, 0x if not found. "
      },
      "tokenInCompany(CompanyFactory.Data storage,address,address)": {
        "details": "find a token into the tokens array corresponding to that company.",
        "params": {
          "aCompany": "address of a company",
          "aToken": "address of a token"
        },
        "return": "true if found, false if not found."
      }
    },
    "title": "Library to create companies on the platform"
  },
  "userdoc": {
    "methods": {}
  }
}